:020000040000FA
:10000000F80B0020D10B0000010B0000EF520000A4
:1000100003530000175300003F5300002B53000010
:10002000000000000000000000000000892F000018
:10003000070B0000000000004D2F00000D0B00001A
:10004000000000000000000000000000130B000092
:1000500000000000190B000000000000000000007C
:100060001F0B0000250B00002B0B0000310B0000C4
:1000700000000000370B00003D0B0000430B0000A8
:10008000490B00004F0B00000000000000000000C2
:10009000550B00005B0B000000000000000000009A
:1000A000610B00000000000000000000670B000072
:1000B0006D0B0000730B0000790B00007F0B00003C
:1000C000850B00008B0B0000910B0000970B0000CC
:1000D0009D0B000000000000A30B000000000000CA
:1000E000A90B000000000000AF0B000000000000A2
:1000F000B50B000000000000000000000000000040
:1001000000000000BB0B0000000000000000000029
:1001100000000000000000000000000000000000DF
:1001200000000000C10B0000000000000000000003
:1001300000000000000000000000000000000000BF
:10014000C70B000020FC0000802D002041000000B3
:1001500040510000401C0020000000004051000001
:10016000201C002000000000A02E002045060000FA
:10017000401C002050040000201C0020080000004B
:10018000001C00200800000000015F5F000000006C
:10019000FE070000553000000004000000000000D1
:1001A000000000000000000000000000000000004F
:1001B000E02F00200000000001015F5F030100004C
:1001C0001F010000FF070000000800000000000001
:1001D000010000000100000000000000000000001D
:1001E0007825002000000000700000001888000042
:1001F00080000000000F0000010000004108000026
:100200000100000001015F5F040100001F01000008
:100210007D04000000050000000000000000000058
:10022000010000000000000000000000401C002051
:1002300000000000248800004000000005070000C6
:0C0240000100000041040000010000006B
:1002600080B500AF01F0D4FB0023184680BD80B5F7
:1002700082B000AF7860FFF7F3FF034618460837F7
:10028000BD4680BD80B5AEB000AF78600023C7F832
:10029000B4300023C7F8B03007F1940300221A608D
:1002A0005A6007F18C0300221A605A600023FB6435
:1002B00007F150033C220021184605F044F80023C2
:1002C000FB6007F110033C220021184605F03BF8C3
:1002D0000023BB600123C7F8A4300023C7F8A03077
:1002E0000423C7F8AC300423C7F8A83004E0D7F8DB
:1002F000AC30013BC7F8AC30D7F8AC30002B0ED097
:10030000D7F8AC305A1E7B68043253F82230002BE9
:10031000EDD004E0D7F8A830013BC7F8A830D7F8F3
:10032000A830002B08D0D7F8A8305A1E7B680832B6
:1003300053F82230002BEDD0D7F8AC30002B07D08B
:10034000D7F8AC30022B03D8D7F8A830012B01D94D
:10035000012371E07B68586807F10802042300213B
:1003600008F0C1FB0346C7F8A030D7F8A030042B33
:1003700002D06FF080035FE0D7F8AC30012B2BD9AF
:100380007B685B69C7F89C30D7F89C30402B02D95A
:100390006FF0890350E07B6858687B685B6907F100
:1003A0004C02012108F09FFB0346C7F8A030D7F8A4
:1003B000A030D7F89C209A4202D06FF080033BE037
:1003C00007F14C03C7F89430D7F89C30C7F8983041
:1003D00007F19403C7F8B430D7F8A830002B12D037
:1003E0007B681B6A402B02D96FF0800324E007F181
:1003F0000C03C7F88C307B681B6AC7F8903007F194
:100400008C03C7F8B030BB68D7F8B020D7F8B41069
:10041000184601F001FBC7F8A400D7F8B030002B54
:1004200008D07B685868D7F88C20D7F89030002126
:1004300008F065FBD7F8A4301846B837BD4680BD34
:1004400080B582B000AF78607B681B68B3F57D7FB4
:1004500004D040F2F532934205D009E07868FFF706
:1004600006FF034606E07868FFF70CFF034601E04D
:100470006FF0850318460837BD4680BD80B400AFD5
:1004800000231846BD4680BC704780B487B000AFDB
:10049000F860B9607A60FB687A681A60FB68BA68CD
:1004A0005A60F8681C37BD4680BC704780B483B082
:1004B00000AF7860044A7B68C2F804340023184611
:1004C0000C37BD4680BC70474021002080B483B00B
:1004D00000AF7860054BD3F804247B681A600023D2
:1004E00018460C37BD4680BC704700BF4021002035
:1004F00080B483B000AF786039607B68033323F049
:1005000003037B600F4BD3F80034C3F580637A6834
:100510009A4202D96FF08C030FE00A4BD3F80034F3
:10052000084A1A443B681A60064BD3F800247B68DB
:100530001344044AC2F80034002318460C37BD4661
:1005400080BC70474021002080B500AF084B0022DE
:10055000C3F80424064BD3F800341A46002104489B
:1005600004F0F1FE024B0022C3F8002400BF80BD5E
:100570004021002080B582B000AF78607868FFF736
:1005800095FF00BF0837BD4680BD80B582B000AF83
:1005900078607868FFF79AFF034618460837BD462B
:1005A00080BDB0B588B000AFF860B9607A603B60DC
:1005B00000237B610123FB612EE0FB68FA690432B2
:1005C00053F8223007F1140211461846FFF790FF46
:1005D000B861BB69002B03D0FFF7B6FFBB694DE0E4
:1005E000FB6858687969FB68FA69043253F822504D
:1005F000FB69DB00BA68D4182B460A46F96908F093
:1006000072FA03466360FB69DB00BA6813447A69D7
:100610001A60FB690133FB61FA697B689A42CCD3AB
:100620000023FB6125E0FB68FA69083253F82230A9
:1006300007F1140211461846FFF75AFFB861BB696B
:10064000002B03D0FFF780FFBB6917E0FB69DB00DD
:100650003A6813447A691A60FB69DB003A6813440C
:10066000FA68F969083152F821205A60FB690133B0
:10067000FB61FA693B6B9A42D5D3002318462037B9
:10068000BD46B0BD80B5A4B002AF78600023BB67A3
:100690000423C7F884300423C7F8803007F15803D7
:1006A00020220021184604F04EFE07F138032022D4
:1006B0000021184604F047FE07F10803302200210C
:1006C000184604F040FE04E0D7F88430013BC7F838
:1006D0008430D7F88430002B0ED0D7F884305A1EDF
:1006E0007B68043253F82230002BEDD004E0D7F8B9
:1006F0008030013BC7F88030D7F88030002B08D01D
:10070000D7F880305A1E7B68083253F82230002B0D
:10071000EDD0D7F88430002B02D16FF0830354E082
:100720007B68586807F108023023002108F0DBF9E4
:100730000346302B02D06FF0830346E007F1080335
:10074000BB653023FB6507F1380207F15801D7F884
:10075000803000931346D7F884207868FFF721FF94
:10076000B867BB6F002B01D0BB6F2EE07B689B6826
:100770001846FFF7FFFE07F1380207F15800D7F8D7
:100780008030D7F8841000F06FF8B8670023FB675B
:1007900013E07B685868FB6FDB0088333B4453F8F9
:1007A000502CFB6FDB0088333B4453F84C3CF96F13
:1007B00008F0A5F9FB6F0133FB67FA6FD7F88030BB
:1007C0009A42E6D3FFF7C0FEBB6F18468837BD4696
:1007D00080BD000080B500AF0121044805F01AF883
:1007E00005F08CF80346184680BD00BF4825002060
:1007F00080B500AF00F0F4F80346184680BD80B520
:1008000082B000AFFFF7F4FF78607B68002B01D067
:100810007B6811E0FFF7DEFF78607B68002B01D07A
:100820007B6809E004F09EFE38603B68002B02D034
:100830006FF0830300E0002318460837BD4680BDF3
:1008400080B582B000AF78607B681B68002B04D154
:100850007868FFF717FF034601E06FF0850318463D
:100860000837BD4680BD000080B58EB000AF78610E
:100870003961FA60BB606FF096037B637B691B682C
:100880003B630023BB6200233B6200237B620023A7
:1008900087F82F307B695B68302B02D06FF08003C4
:1008A00099E03B6B9B8D87F82E3097F82E30022B0A
:1008B00005D097F82E30002B01D0012300E0002353
:1008C00087F82F3097F82F3003F0010387F82F3087
:1008D00097F82F30002B18D007F128031846FFF7A0
:1008E00054FE78637B6B002B01D07B6B73E0B96A9D
:1008F0003B6B1A683B461846FFF7C7FD07F120031C
:100900003A4692E8030083E8030097F82E30082B5C
:100910005FD801A252F823F0C70900003D0900008A
:100920004F0900005B0900006D0900007F0900000D
:1009300091090000A3090000B509000007F1200398
:100940001A46F968786900F0B1F8034643E0F9689F
:10095000786900F05EF803463DE007F120031A468F
:10096000F968786900F061F8034634E007F1200384
:100970001A46F968786900F03FF803462BE007F162
:1009800020031A46F968786900F05CF8034622E013
:1009900007F120031A46F968786900F060F8034609
:1009A00019E007F120031A46F968786900F064F845
:1009B000034610E007F120031A46F968786900F051
:1009C00068F8034607E0F968786900F07CF80346A8
:1009D00001E06FF0850318463837BD4680BD00BF83
:1009E00080B500AF28220021024804F0ACFC0023AF
:1009F000184680BD4C25002080B485B000AFF8605B
:100A0000B9607A606FF0850318461437BD4680BC24
:100A1000704780B483B000AF786039606FF08503B1
:100A200018460C37BD4680BC704780B485B000AF17
:100A3000F860B9607A606FF0850318461437BD46D8
:100A400080BC704780B485B000AFF860B9607A6050
:100A50006FF0850318461437BD4680BC704780B4DC
:100A600085B000AFF860B9607A606FF08503184612
:100A70001437BD4680BC704780B485B000AFF860C5
:100A8000B9607A606FF0850318461437BD4680BCA4
:100A9000704780B485B000AFF860B9607A606FF0DD
:100AA000850318461437BD4680BC704780B485B0B6
:100AB00000AFF860B9607A606FF0850318461437AC
:100AC000BD4680BC704780B584B000AF78603960A7
:100AD0003B681B68FB603B685B68BB60B968F86893
:100AE00004F0FCFE034618461037BD4680BD0000EA
:100AF00000000000000000000000000000000000F6
:100B000080B400AFFEE780B400AFFEE780B400AF72
:100B1000FEE780B400AFFEE780B400AFFEE780B42C
:100B200000AFFEE780B400AFFEE780B400AFFEE7A1
:100B300080B400AFFEE780B400AFFEE780B400AF42
:100B4000FEE780B400AFFEE780B400AFFEE780B4FC
:100B500000AFFEE780B400AFFEE780B400AFFEE771
:100B600080B400AFFEE780B400AFFEE780B400AF12
:100B7000FEE780B400AFFEE780B400AFFEE780B4CC
:100B800000AFFEE780B400AFFEE780B400AFFEE741
:100B900080B400AFFEE780B400AFFEE780B400AFE2
:100BA000FEE780B400AFFEE780B400AFFEE780B49C
:100BB00000AFFEE780B400AFFEE780B400AFFEE711
:100BC00080B400AFFEE780B400AFFEE70000000095
:100BD00080B588B000AF72B600BF314B314A9A6021
:100BE000314B3B603B6883F3098800BF2F4B7B6030
:100BF0007B6883F30A8800BF2C4BBB60BB6883F320
:100C00000B8800BF2A4BFB60F96823A3D3E90023BC
:100C1000C1E9002300BF00F045F9264BFB6119E054
:100C20000023BB610EE0FB691A68BB699B001A4494
:100C3000FB695968BB699B000B4412681A60BB6969
:100C40000133BB61FB699B68BA699A42EBD3FB69CC
:100C50000C33FB61FB69184A9342E1D3174B7B616C
:100C600014E000233B6109E07B691A683B699B0043
:100C7000134400221A603B6901333B617B695B6866
:100C80003A699A42F0D37B6908337B617B690C4AED
:100C90009342E6D304F0E6FAA5EDF5FEA5EDF5FEE8
:100CA00000ED00E000000000F80B00200004002030
:100CB000F80B0020440100006801000068010000FA
:100CC0008801000080B400AFBFF34F8F00BF064B18
:100CD000DB6803F4E0620449044B1343CB60BFF3C9
:100CE0004F8F00BF00BFFDE700ED00E00400FA05F4
:100CF00080B483B000AF104B1B68C3F30B037B6061
:100D00000E4B1B683B60BFF34F8F00BF7B68092B06
:100D10000CD13B68012B03D03B68022B02D003E0CF
:100D2000012304E0012302E0012300E00023184630
:100D30000C37BD4680BC70473001FF003401FF0016
:100D400080B483B000AF104B1B68C3F30B037B6010
:100D50000E4B1B683B60BFF34F8F00BF7B68092BB6
:100D60000CD13B68012B03D03B68022B02D003E07F
:100D7000012304E0002302E0002300E000231846E2
:100D80000C37BD4680BC70473001FF003401FF00C6
:100D900080B483B000AF104B1B68C3F30B037B60C0
:100DA0000E4B1B683B60BFF34F8F00BF7B68092B66
:100DB0000CD13B68012B03D03B68022B02D003E02F
:100DC000002304E0012302E0012300E00023184691
:100DD0000C37BD4680BC70473001FF003401FF0076
:100DE00080B483B000AF104B1B68C3F30B037B6070
:100DF0000E4B1B683B60BFF34F8F00BF7B68092B16
:100E00000CD13B68012B03D03B68022B02D003E0DE
:100E1000012304E0002302E0002300E00023184641
:100E20000C37BD4680BC70473001FF003401FF0025
:100E300080B483B000AF104B1B68C3F30B037B601F
:100E40000E4B1B683B60BFF34F8F00BF7B68092BC5
:100E50000CD13B68012B03D03B68022B02D003E08E
:100E6000012304E0012302E0012300E000231846EF
:100E70000C37BD4680BC70473001FF003401FF00D5
:100E800080B400AF00231846BD4680BC704780B5D3
:100E900000AFFFF7F5FF034683F00103DBB2002B41
:100EA00080BD000080B584B000AF664B1B68654A0A
:100EB00043F002031360FFF71BFF0346002B09D02A
:100EC0004FF050230022C3F814214FF0502300228A
:100ED000C3F81821FFF734FF0346002B06D05A4B06
:100EE00001221A60594B0122C3F87825FFF750FF01
:100EF0000346002B03D0554B0122C3F87825FFF79A
:100F00006FFF0346002B02D0514B0E221A60FFF7F1
:100F10008FFF0346002B05D04E4B00221A604E4B2C
:100F200001221A600023FB6011E04FF47F024FF4AE
:100F30007F01FB68603351F833301946FB6860333A
:100F4000DB0013445B680B60FB680133FB60FB68EC
:100F5000FF2B0ED8FB68DB0003F57F0303F540731E
:100F6000184600F0A9F8034683F00103DBB2002B1A
:100F7000DBD100F089F80346002B04D100F074F8AF
:100F80000346002B50D0BFF34F8F00BF00BF334B41
:100F9000D3F80034012BFAD1304B0122C3F80425D9
:100FA00000BF2E4BD3F80034012BFAD100F06CF8BF
:100FB0000346002B12D02A4BDB69BB60BB6823F0D1
:100FC00001037B60264A7B68D361BFF34F8F00BF6C
:100FD00000BF224BD3F80034012BFAD100F044F8C3
:100FE0000346002B14D01E4B1B6ABB60BB6823F06A
:100FF000FF0343F020037B60194A7B681362BFF351
:101000004F8F00BF00BF154BD3F80034012BFAD12E
:10101000124B0022C3F8042500BF104BD3F8003454
:10102000012BFAD1FFF74EFE0E4BD3F88C300D4A50
:1010300043F44063C2F88C30FFF729FF00BF10373C
:10104000BD4680BDD0ED00E0384A00500040005061
:10105000E4AE03500C47005010470050009003507E
:101060000080FF0000ED00E080B500AF054800F013
:1010700023F80346002B01D0012300E0002318468B
:1010800080BD00BF2080FF0080B483B000AF094B5B
:10109000DB697B60BFF34F8F00BF7B6803F0010308
:1010A000002B01D0012300E0002318460C37BD4679
:1010B00080BC70470080FF0080B485B000AF7860CE
:1010C0007B681B68FB60BFF34F8F00BFFB68B3F109
:1010D000FF3F0CBF01230023DBB218461437BD4687
:1010E00080BC704780B400AF72B600BF044B1B6871
:1010F0000133034A136000BFBD4680BC704700BF88
:101100004439002080B500AF0B4B1B68002B05D184
:101110000A4B0B4A2C210B4806F0AAFA064B1B6817
:10112000013B054A1360044B1B68002B01D162B6DA
:1011300000BF00BF80BD00BF44390020404B00000D
:10114000D04B0000584B000080B487B000AFF8606F
:10115000B9607A60FB681B687B617B69114A1A631E
:10116000BB68002B01D0042200E000227B68002B2A
:1011700001D0022300E000231A437B695A607B6997
:101180005B6843F001027B695A60BFF34F8F00BF79
:10119000BFF36F8F00BF002318461C37BD4680BCCD
:1011A000704700BF04AAFF0080B489B000AF786028
:1011B00039607B681B68FB610023FB763B685B68DA
:1011C00003F01F03002B01D0012354E0FB691B68CF
:1011D0001B0ADBB27B613B681B687A699A4201D8C3
:1011E000012348E0FB695B683B61FB6900225A60B0
:1011F0003B681B68DAB2FB699A603B685B6823F066
:101200001F03FB603B689B7CDB0003F01803FA685C
:101210001343FB603B685B7C5B0003F00603FA68EA
:101220001343FB603B681B7C03F00103FA68134324
:10123000FB60FB69FA68DA603B689B68013B23F05E
:101240001F03BB603B68DB685B0003F00E03BA68FA
:101250001343BB60BB6843F00103BB60FB69BA6822
:101260001A61FB693A695A60BFF34F8F00BFBFF341
:101270006F8F00BFFB7E18462437BD4680BC704789
:1012800080B487B000AF786039607B681B687B6191
:101290000023FB747B695B68FB607B6900225A60FA
:1012A0003B68DAB27B699A607B690022DA607B690D
:1012B00000221A617B69FA685A60FB7C18461C3769
:1012C000BD4680BC704780B586B000AF78607B6853
:1012D0001B683B613B691B681B0ADBB2FB60002398
:1012E0007B6106E079697868FFF7CAFF7B690133A3
:1012F0007B617A69FB689A42F4D300231846183759
:10130000BD4680BD80B483B000AF786039607B6833
:101310003A68C3F8042300BF0C37BD4680BC704751
:1013200080B582B000AF7860084611461A46034681
:10133000FB700B46BB7013467B70FA787B68A0325B
:1013400053F8323003F48073002B06D01C4B1D4A37
:101350004FF4BD711C4806F08BF9FB787A68A03316
:10136000DB0013445B6803F48073002B06D0174B3B
:10137000144A40F27B11144806F07AF97B783A7CE3
:10138000002A02D04FF4807100E00021FA7819435E
:101390007B68A03243F83210BA783B7C002B02D035
:1013A0004FF4807100E00021FB780A437968A03394
:1013B000DB000B445A6000BF0837BD4680BD00BF4C
:1013C000EC4B0000C04F0000284C0000684C0000AF
:1013D00080B584B000AFF8607B600B46FB721346AB
:1013E000BB72FA7AFB6802F5C07253F8223003F43C
:1013F0008073002B06D0104B104A4FF4CC7110486C
:1014000006F036F9BB7A002B01D0102200E0002252
:101410007B6813433A7E002A02D04FF4807100E0CB
:101420000021FA7A1943FB6802F5C07243F82210D2
:1014300000BF1037BD4680BDA44C0000604F0000C7
:10144000284C000080B584B000AFF8607B600B468C
:10145000FB721346BB72FA7AFB6802F5E07253F82E
:10146000223003F48073002B06D0104B104A40F258
:10147000A511104806F0FCF8BB7A002B01D0102211
:1014800000E000227B6813433A7E002A02D04FF42A
:10149000807100E00021FA7A1943FB6802F5E072DE
:1014A00043F8221000BF1037BD4680BDE04C00005D
:1014B000784F0000284C000080B584B000AFF86081
:1014C000B96011461A460B46FB711346BB71FB68A7
:1014D000BA6802F5007253F82230002B06DB1C4B71
:1014E0001C4A4FF4D9711C4806F0C2F8FB68BA6870
:1014F00002F5007253F8223003F48073002B06D0FB
:10150000164B144A40F2B311134806F0B1F8FB79B8
:10151000002B01D0102200E00022BB79002B01D06B
:10152000202300E0002313433A7E002A02D04FF428
:10153000807200E0002242EA0301FB68BA6802F50B
:10154000007243F8221000BF1037BD4680BD00BFB7
:10155000184D0000F84F0000284C0000504D0000CE
:1015600080B500AF07210248FFF7CCFE00BF80BD69
:101570000030005080B485B000AF78600B46FB703F
:101580000023FB73FB7B18461437BD4680BC7047B5
:1015900080B485B000AF78600B46FB700023FB730E
:1015A000FB7B18461437BD4680BC704780B584B0BD
:1015B00002AF00237B6017E07B68DBB219461D4851
:1015C000FFF7D8FF034683F00103DBB2002B08D0FE
:1015D0007B68D9B200230093072301221548FFF747
:1015E000F7FE7B6801337B607B681F2BE4D9002307
:1015F0003B6017E03B68DBB219460E48FFF7C8FFB7
:10160000034683F00103DBB2002B08D03B68D9B25C
:1016100000230093072301220648FFF713FF3B68CE
:1016200001333B603B681F2BE4D900BF00BF083784
:10163000BD4680BD0030005080B588B002AF7860F4
:1016400039607B68DB0B3B613B68DB0BFB603B6914
:101650007B610BE07B69D9B2012300930723002251
:101660000748FFF7B5FE7B6901337B617A69FB6848
:101670009A42EFD900BF00BF1837BD4680BD00BFFA
:101680000030005080B588B002AF786039607B6868
:1016900003F160435B0B3B613B6803F160435B0B11
:1016A000FB603B697B610BE07B69D9B2012300934E
:1016B000072300220748FFF7C5FE7B6901337B61E2
:1016C0007A69FB689A42EFD900BF00BF1837BD4660
:1016D00080BD00BF0030005080B586B002AF78609A
:1016E00039603A687B68D31A0133FB607B68C3F3C7
:1016F0000E03C3F50043BB60FA68BB689A4205D984
:101700001F4B204AC721204805F0B2FF7A68BB680A
:101710001344C3F30E03002B05D01C4B194ACA21F6
:10172000194805F0A5FFBB685A1EBB681340002B83
:1017300005D0174B134ACE21134805F099FFBB681B
:101740001F2B03D9BB68B3F5805F05D9114B0D4A38
:10175000D1210D4805F08CFFBB68B3FA83F3DBB2EF
:10176000C3F11B03DAB27B68DB0BDBB20121009112
:1017700000210948FFF7D4FD00BF1037BD4680BDEA
:101780008C4D0000904F0000A04D0000204E000046
:101790004C4E0000704E00000030005080B483B00A
:1017A00000AF78607B68DB0318460C37BD4680BC11
:1017B000704780B483B000AF78607B680133DB038F
:1017C000013B18460C37BD4680BC704780B400AF63
:1017D00000231846BD4680BC704780B400AF1F236D
:1017E0001846BD4680BC704780B400AF4FF400433C
:1017F0001846BD4680BC704780B483B000AF7860A7
:101800007B6803F57F43C0335B0318460C37BD4646
:1018100080BC704780B483B000AF78607B6803F50C
:101820007F43C1335B03013B18460C37BD4680BC88
:10183000704780B400AF40231846BD4680BC704757
:1018400080B400AF5F231846BD4680BC704780B4AB
:1018500000AF4FF400531846BD4680BC70470000EF
:1018600080B586B002AF78600B46FB707B681B0BBF
:10187000FB730E4AFB7B03F5007352F8233003F031
:101880000303002B06D10A4B0A4A40F21B110A48F7
:1018900005F0EEFEF97BFB7800930123012203485B
:1018A000FFF70AFE00BF1037BD4680BD0030005074
:1018B000984E0000D84F0000A04D000080B586B0C3
:1018C00002AF78600B46FB707B681B0BFB730E4A04
:1018D000FB7B03F5007352F8233003F00303012B65
:1018E00006D10A4B0A4A4FF496710A4805F0C0FE29
:1018F000F97BFB780093002300220348FFF7DCFD0F
:1019000000BF1037BD4680BD00300050FC4E0000C7
:1019100010500000A04D000080B582B000AF04F070
:1019200055F878607B68002B02D045F2235300E025
:10193000002318460837BD4680BD000080B483B040
:1019400000AF0C4BDB687B607B689BB27B607B6885
:1019500023F008037B607B6843F0BF6343F40033EC
:101960007B60044A7B68D36000BF0C37BD4680BCF7
:10197000704700BF00ED00E080B582B000AF03F01B
:1019800083F878607B68002B01D07B680AE0FFF762
:10199000C3FF78607B68002B01D07B6802E0FFF713
:1019A000CDFF002318460837BD4680BD80B400AF88
:1019B00000231846BD4680BC704780B400AF0023AA
:1019C0001846BD4680BC704780B400AF002318465F
:1019D000BD4680BC704780B400AF00BFBD4680BC30
:1019E0007047000080B400AFBFF34F8F00BF064BBD
:1019F000DB6803F4E0620449044B1343CB60BFF39C
:101A00004F8F00BF00BFFDE700ED00E00400FA05C6
:101A100080B500AFFFF7E6FF80B584B000AFF86097
:101A2000B9607A60FB68002B05D17968B86800F06E
:101A300021F8034600E0032318461037BD4680BD59
:101A400080B400AFBFF34F8F00BF064BDB6803F4D9
:101A5000E0620449044B1343CB60BFF34F8F00BFD8
:101A600000BFFDE700ED00E00400FA0580B500AF1F
:101A7000FFF7E6FF80B58CB000AF786039600123D6
:101A80007B6206233B627B685B680C2B03D13B685F
:101A90005B68042B01D0022358E07B681B68FB6164
:101AA0003B681B68BB61BB694FF0FF321A600223C1
:101AB000FB62FB691B68002B03D0FB699B68002B52
:101AC00001D1022342E0FB691B681946FB699A6851
:101AD0003B6A786A01F09AFC78617B69002B01D03F
:101AE000022333E00023BB622CE01A4ABB6A52F89F
:101AF00033303B61174ABB6ADB0013445B68FB6011
:101B0000FB695B683A699A4219D8FB695A68FB69B4
:101B10009B681A443969FB680B449A420FD8FB69E9
:101B20001868FB695B681946FB699B681A4603F0F5
:101B300052FCBB6900221A600023FB6205E0BB6A0D
:101B40000133BB62BB6A022BCFD9FB6A1846303720
:101B5000BD4680BD3450000080B500AFFFF786FF62
:101B600000BF80BD80B485B000AF78607B68FB604B
:101B7000FB6883F30A8800BF00BF1437BD4680BCF2
:101B80007047000080B582B000AF43F65C237B60F5
:101B90004FF0FF333B60184801F076FA38603B683D
:101BA000002B01D01F2323E0FFF7E6FE38603B68DF
:101BB000002B01D01F231BE0FFF7F8FE78607B6845
:101BC000002B01D01F2313E0FFF7F7FE0346002B85
:101BD00007D0FFF7F9FE78607B68002B03D01F2346
:101BE00006E0FFF7F8FE01F02FFA02F06DF800238F
:101BF00018460837BD4680BDE033002080B582B06E
:101C000000AF4FF0FF337B600A4B1846FFF7AAFF87
:101C1000FFF7B8FF78607B68002B01D0FFF79CFFCF
:101C200001F0DEF901F034F8002318460837BD460C
:101C300080BD00BF0004002090B587B000AF786081
:101C400039603B687B610F4B1B685B681C3B3B61E9
:101C50003B693A68DA623B690B4A1A637C687B69C4
:101C600018687B6959687B699A687B69DB68A0475B
:101C7000F860F86800F07FF8FB6818461C37BD462E
:101C800090BD00BFF4330020EDEEEEEE80B584B0E1
:101C900000AF786039600E4B1B685B681C3BFB60D3
:101CA0003B68BB60FB681B6B0A4A934202D17A68AF
:101CB000BB681A6000F0F0FF0246054B1B689A42B1
:101CC00001D002F0B3F800BF1037BD4680BD00BFA1
:101CD000F4330020EDEEEEEE80B586B000AF786014
:101CE000396000237B6100233B61EFF30583FB60D8
:101CF000FB68BB603B89C3F308039BB2002B01D098
:101D0000FFF72AFF0E4B1B689B683A689A4205D979
:101D10000B4B1B68DB683A689A4207D9084B1B6873
:101D20001B687B61064B1B689B683B613B697A695A
:101D30003968786801F0DEF800BF1837BD4680BD0D
:101D4000EC33002080B483B000AFEFF3108372B6A1
:101D50007B607B6818460C37BD4680BC704780B4FA
:101D600083B000AF78607B6883F3108800BF0C37C6
:101D7000BD4680BC704780B582B000AF78607B689C
:101D800013F1810F03D07B6813F1820F09D102F0A8
:101D90002DFB034683F00103DBB2002B01D0FFF7DC
:101DA000DBFE00BF0837BD4680BD80B400AF002316
:101DB0001846BD4680BC704780B400AF40F20113A6
:101DC0001846BD4680BC704780B584B000AF7860CF
:101DD00002F00CFB0346FB73786802F07DF9B860F3
:101DE000BB68002B01D100230DE0FB7B1A46B968CC
:101DF000786802F0D3F90346002B01D0002302E0FB
:101E0000BB681B68DB6818461037BD4680BD000004
:101E100080B5AAB006AFF860B9607A603B60002375
:101E20007B6102F0E3FA034687F88730B04B1B680A
:101E30005B681C3BC7F88030BB681B0C1BB2FB67A0
:101E4000BB681B0ADBB2BB67BB68DBB27B674FF0CA
:101E5000FF333B67FB6F002B02DA6FF080036EE10C
:101E60007B6FDB43BA6F9A4204D8BA6F7B6F13441F
:101E7000042B02D96FF0800361E1FB68002B02D1D3
:101E80006FF080035BE197F88730184602F0CCFAD8
:101E9000F866FB6803F08043002B58D0FB68DBB288
:101EA000BB66BB6E1F2B02D96FF0800347E1914ADE
:101EB000BB6E52F823307B667B6E002B02D16FF035
:101EC00080033CE17B6E1B685B683B6697F887305C
:101ED0001A46796E386E02F061F90346002B02D083
:101EE0006FF081032BE1FB681B12DBB2FB65F96D20
:101EF000786E02F021F90346002B02D06FF08003C8
:101F00001DE1FFF71FFF03467B6102F043F8B86550
:101F10007B691846FFF723FFBB6D002B02D16FF0E2
:101F200082030CE1BB6D00221A60B86D01F0FAFF6C
:101F3000F860D7F88030D8687968BB6FDA00022380
:101F400001F064FA38673B6F002B06D002E06FF0B7
:101F50008003F4E06FF08003F1E0D7F88030D868B8
:101F600039687B6FDA00062301F050FA38673B6F5F
:101F7000002B02D06FF08003E1E007F1380320224C
:101F80000021184603F0DFF907F118032022002191
:101F9000184603F0D8F9BB6FDA0007F13803796807
:101FA000184603F018FA7B6FDA0007F11803396856
:101FB000184603F010FA0023C7F88C3020E0D7F859
:101FC0008030D868D7F88C30DB0090333B4453F82E
:101FD000583C1946D7F88C30DB0090333B4453F81B
:101FE000542C022301F012FA38673B6F002B02D009
:101FF0006FF08003A3E0D7F88C300133C7F88C3042
:10200000D7F88C30BA6F9A42D9D80023C7F88C30F1
:1020100047E0D7F88C300133C7F8883037E0D7F87D
:102020008830DB0090333B4453F8582CD7F8883085
:10203000DB0090333B4453F8543C1A44D7F88C30BF
:10204000DB0090333B4453F8583C9A421AD9D7F8F6
:102050008830DB0090333B4453F8582CD7F88C3051
:10206000DB0090333B4453F8581CD7F88C30DB002E
:1020700090333B4453F8543C0B449A4202D26FF0E5
:1020800080035CE0D7F888300133C7F88830D7F890
:102090008830BA6F9A42C2D8D7F88C300133C7F86B
:1020A0008C30D7F88C3001331A46BB6F9342B0D8CE
:1020B0000023C7F88C3024E0D7F88030D868D7F8F0
:1020C0008C30DB0090333B4453F8783C1946D7F80A
:1020D0008C30DB0090333B4453F8742C062301F022
:1020E00095F938673B6F002B06D06FF0800326E030
:1020F000F433002014340020D7F88C300133C7F8B3
:102100008C30D7F88C307A6F9A42D5D83B680593DB
:102110007B6F049307F118030393BB6F029307F1DE
:1021200038030193FB6E0093FB6FFA68796EB86D0C
:1021300002F0A4F8B96D786E00F0ACFA03461846C8
:102140009037BD4680BD00BF80B584B000AF7860D9
:1021500039600023FB603B6803F000433B60114B98
:102160001B685B681C3BFB60FB681B69002B07D08E
:10217000FB681A697B681340002B01D1FFF7ECFC68
:102180003B68B3F1004F05D17968F86800F09CFB1B
:10219000034603E0FB689A697B68134018461037D2
:1021A000BD4680BDF433002080B586B000AF7860B6
:1021B000396000237B6100233B614FF0FF33FB60FC
:1021C0007B68002B05D07B685A1E7B681340002B70
:1021D00001D0FFF7C1FC1B4B1B685B681C3B3B61DC
:1021E0003B69D86839680623302201F00FF9F8609E
:1021F000FB68002B01D0FFF7AFFC3B699B69002B0C
:1022000001D1FFF7A9FC3B699A697B681340002B59
:1022100001D1FFF7A1FC7968386901F011FF7861FD
:102220007B69002B02D16FF08B0307E07B691833C9
:1022300030221946386803F0CEF8002318461837C4
:10224000BD4680BDF433002080B588B000AFF86093
:10225000B9607A603B600023FB61314B1B685B68AF
:102260001C3BBB614FF0FF337B61F86801F0E4FF7A
:10227000F861FB69002B01D1FFF76EFCFB699B69DC
:10228000002B01DAFFF768FCBB68032B01D9FFF7CD
:1022900063FCFB69BA680A3253F82230002B01D183
:1022A000002339E0BB69D868796806233A6801F0F1
:1022B000ADF878617B69002B01D0FFF74DFCFB691D
:1022C000BA680A3253F822303A68934228BF13465C
:1022D0003B61FB69BA68093253F832303A691946F2
:1022E000786803F078F8FB69BA68093253F832204D
:1022F0003B69D118FB69BA68093243F83210FB69AF
:10230000BA680A3253F822203B69D11AFB69BA68CD
:102310000A3243F822103B6918462037BD4680BD7B
:10232000F433002080B586B000AFF860B9607A6001
:1023300000237B61F86801F07FFF78617B69002BE7
:1023400001D1FFF709FC7B699B69002B01DAFFF7DC
:1023500003FCBB68032B01D9FFF7FEFB7B69BA685E
:102360000A3253F82230002B01D1002326E07B698A
:10237000BA680A3253F822307A689A4205D97B69E2
:10238000BA680A3253F822307B607B69BA68093236
:1023900053F832207B68D1187B69BA68093243F858
:1023A00032107B69BA680A3253F822207B68D11A4E
:1023B0007B69BA680A3243F822107B6818461837DE
:1023C000BD4680BD80B588B000AFF860B9607A6066
:1023D0003B600023FB612E4B1B685B681C3BBB61B1
:1023E0004FF0FF337B61F86801F026FFF861FB696D
:1023F000002B01D1FFF7B0FBFB699B69002B01DAD1
:10240000FFF7AAFBBB68032B01D9FFF7A5FBFB690C
:10241000BA680E3253F82220F969BB680D33DB002D
:102420000B445B68D31A3A689A4201D9FFF794FBD0
:10243000BB69D868796802233A6800F0E7FF7861E1
:102440007B69002B01D0FFF787FBFB69BA680D326F
:1024500053F83220F969BB680D33DB000B445B682D
:1024600013443A687968184602F0B5FFFA69BB6808
:102470000D33DB0013445A683B681A44F969BB68A2
:102480000D33DB000B445A6000BF2037BD4680BDD2
:10249000F433002080B586B000AF78603960002347
:1024A0007B610023BB60786801F0C6FE38613B6940
:1024B000002B01D1FFF750FB3B69DB68FB60FB6839
:1024C000002B01D1FFF748FB3B699B6913F1020F19
:1024D0001ED0B3F1FF3F1FD13B68002B02D17B68B8
:1024E0007B612FE03B6813F1820F06D16FF081030F
:1024F0007B613B6902225A6024E03B6813F1830F41
:1025000003D16FF082037B611CE0FFF725FB19E02C
:102510003B6902225A6015E03B699B69002B0FDB87
:102520003B687B61386901F0E5FFFB681B689B68CD
:1025300003F40073002B05D03B6902225A6001E0CE
:10254000FFF70AFB7B6913F1810F05D13B691B6A19
:10255000002B01DBFFF700FBFFF7F4FB0346BB603A
:102560007969386900F0FAF87861BB681846FFF7B6
:10257000F6FB3B695B68022B03D1386901F042FD31
:1025800002E03B6900225A607B6918461837BD4655
:1025900080BD80B500AFFFF769FA00BF80BD80B491
:1025A00083B000AFEFF3108372B67B607B68184690
:1025B0000C37BD4680BC704780B483B000AF7860F4
:1025C0007B6883F3108800BF0C37BD4680BC704722
:1025D00080B48BB000AF78607B681B68FB61FB69DF
:1025E0009B699A00FB6913443033BB617B681C33E1
:1025F0007B6108237B62FB699B6803F40073002BFB
:1026000005D1FB69DB699B007A6A13447B627B69B5
:102610001A687B6A073323F00703D21A7B691A60B2
:102620007B691B683B61FB69DA683B691A603B693F
:1026300000225A603B690833FB60FB699B6803F426
:102640000073002B1DD100233B6211E03A6A134650
:102650005B001344DB001A46BB69134419693B6AEB
:102660009B00FA6813440A461A603B6A01333B62D6
:10267000FB69DA693B6A9A42E8D8FB69DA693B6927
:102680005A607B683A699A6000BF2C37BD4680BCAF
:102690007047000080B586B000AF786039600023D5
:1026A0007B6100233B610023FB603B68002B0AD069
:1026B0007B68002B07D07B681B68002B03D07B68EE
:1026C0005B68002B02D16FF0800340E07B685B68A1
:1026D0007B617B681B685B693B61FFF760FF0346BA
:1026E000FB607B699A6C3B68C3F88C207B693A6815
:1026F0009A647B699A693B691A437B699A617B6931
:102700005A693B691340002B11D07B6903F13400F7
:102710007B699A697B695B691340194600F092FBFB
:102720007B695A693B69DB431A407B695A61FB68E4
:102730001846FFF741FF3B681033074A12681146FD
:10274000184600F063FB3B6801225A6000231846DC
:102750001837BD4680BD00BFF433002080B582B07D
:1027600000AF786039607B6810333A6811461846CC
:1027700000F068FB002318460837BD4680BD000006
:1027800080B584B000AF786039607B681B68FB60FF
:102790007B681A693B681A437B681A617B682C4A1C
:1027A0005A637B6800229A637B68002B02D07B68A7
:1027B00000229A64FB6828331A68FB681B6913447B
:1027C00023F007027B68DA61FB6828331B68073354
:1027D00023F007027B685A627B68DA697B689A6239
:1027E0007B6800221A627B680022DA627B68194AE1
:1027F0001A637868FFF7ECFEFB689B68DAB27B68C7
:1028000083F83C207B68002283F83D207B6800220F
:10281000DA877B6803F11C027B681A64FB689B689B
:1028200003F48063002B07D0FB685B68002B03D1A7
:102830007B681C33084A13607B683C336FF00102ED
:102840000649184600F07AFA00BF1037BD4680BD31
:102850006A626F73EDEEEEEEEC33002095540000EB
:1028600080B584B000AF4FF0FF33FB60124B1B68A4
:10287000002B00D1FEE7114B1B681A46104B1A6063
:10288000104800F0A9FAB8600E4B1B685B681C3B4F
:102890007B607B681A687B68DB681946104600F02D
:1028A000C5FCF860FB68002B01D0FFF755F9BB6849
:1028B00018461037BD4680BDEC330020A02D002007
:1028C000F0330020F433002080B584B000AF78608E
:1028D00039600023BB60FFF762FE0346BB607B6884
:1028E0009B693A681340FB60FB68002B0AD17B6848
:1028F0003A685A617B683433074A126811461846B1
:1029000000F084FABB681846FFF756FEFB681846CD
:102910001037BD4680BD00BFF433002080B58AB0BB
:1029200000AF4FF0FF337B6200F0B6F9386200234E
:102930007B60314B1B685B68FB61FB69BB60FB69BB
:10294000FB602D4B1B685B681C3BBB613B6A3C3BDF
:102950007B612A4B1B68012B39D03B6A002B36D098
:10296000BA697B699A4232D0FB699B6803F1200205
:10297000EFF309833B613B699A4201D9FFF7ECF819
:10298000FFF70DFE03467B60BB69DA687B69DB6895
:102990001946104600F090FE0346002B0DD07B69CF
:1029A0001A687B69DB681946104600F03FFC7862C4
:1029B0007B6A002B01D0FFF7CFF83B6A5B68FB60B6
:1029C0000D4A3B6A13607B681846FFF7F5FD0C4B18
:1029D0001B68002B08D07B699B68002B04D07B69A7
:1029E0009A68074B1B681A60D7E9022310461946FC
:1029F0002837BD4680BD00BFF433002000340020DE
:102A0000F033002080B483B000AF78607B6803F0BF
:102A10004003002B14BF01230023DBB218460C3700
:102A2000BD4680BC7047000080B400AF064BD3E9C0
:102A30000023064805498B4208BF824200D0FEE7CA
:102A400000BFBD4680BC7047F80B0020A5EDF5FE29
:102A500080B586B000AF0346B9607A60FB7300238F
:102A60007B61FB7B102B00F2988001A252F823F0CF
:102A7000B52A0000BD2A00009B2B0000CB2A0000D5
:102A80009B2B0000852B0000592B00009B2B000086
:102A9000ED2A00000F2B00002B2B00006F2B0000F5
:102AA0009B2B00009B2B00009B2B00004B2B00005E
:102AB000512B0000FFF780F9034675E0BB681B68E7
:102AC0001846FFF781F903466EE0BB681B6818469D
:102AD000BB6804331968BB6808331B681A46BB68B7
:102AE0000C331B68FFF794F9786159E0BB681B68E9
:102AF0001846BB6804331968BB6808331B681A465C
:102B0000BB680C331B68FFF79FFB03464CE0BB68B8
:102B10001B681846BB6804331968BB6808331B6818
:102B20001A46FFF7FFFB03463EE0BB681B681846EA
:102B3000BB6804331968BB6808331B681A46BB6856
:102B40000C331B68FFF73EFC2AE0FFF722FD27E06D
:102B5000FFF72BF9034627E0BB681A68BB6804330C
:102B60001B6819461046FFF71FFB03461CE0BB68B5
:102B70001B681A46BB6804331B6819461046FFF7EA
:102B800089FC0DE0BB681A68BB6804331B681946F2
:102B90001046FFF7D9FA034606E06FF0830303E01F
:102BA0007869FFF7E8F87B6918461837BD4680BD9D
:102BB00080B586B000AFF860B9607A600023FB751D
:102BC000FB683B61BB6803F00803002B06D0BB68C1
:102BD00003F00403002B01D07B683B61B868FFF76A
:102BE00011FF0346002B06D03B6918331B68023BDC
:102BF0001B78FB7501E0FEF7AFFFBB6803F008032D
:102C0000002B0CBF01230023DAB297F91730DBB297
:102C1000DB09DBB25340DBB2002B01D0FEF79CFF97
:102C2000FB7D402B0CD0412B0ED101F019FCB8607C
:102C3000FFF7FAFE144BB968184601F0D3F81DE00F
:102C4000386901F04DF819E0FB680F4A934201D052
:102C5000FEF782FFFB7DBA6839691846FFF7F8FE78
:102C600003461A463B691A6000F016F80246074B05
:102C70001B689A4201D001F0D9F800BFBB68184622
:102C80001837BD4680BD00BFF80B0020F43300208C
:102C900041DF704700BF000080B483B000AF0A4B33
:102CA0001B687B6002E07B689B687B607B68002B15
:102CB00003D07B685B78012BF5D17B6818460C3715
:102CC000BD4680BC704700BFFC33002080B485B097
:102CD00000AF786039607B681B68002B06D03B68CA
:102CE0001A787B681B681B789A4207D87B681A6839
:102CF0003B689A607B683A681A6019E07B681B68D9
:102D0000FB6002E0FB689B68FB60FB689B68002B34
:102D100006D03B681A78FB689B681B789A42F1D80A
:102D2000FB689A683B689A60FB683A689A6000BFE3
:102D300000BF1437BD4680BC7047000080B584B02A
:102D400000AFF860B9607A60FB68002B00D1FEE745
:102D5000F9680948FFF7BAFFFB685868B9687B68EB
:102D6000002201F071F80121F86800F007F800BFB7
:102D70001037BD4680BD00BFF833002080B483B05B
:102D800000AF786039607B68002B00D1FEE73B68BC
:102D9000DAB27B685A707B685B78012B0ED10C4BE2
:102DA0001B68002B06D07B681A78094B1B681B78C0
:102DB0009A4203D2064A7B68136004E0054B1B6805
:102DC000034A136000BF00BF0C37BD4680BC70478C
:102DD000FC330020F833002080B584B000AF786069
:102DE000FFF75AFFF86001F021F87B68002B02D052
:102DF0007B68FA681A60FB685B68184601F05DF84A
:102E0000034618461037BD4680BD000080B582B02D
:102E100000AF786039607B68002B04D07B681B684A
:102E2000074A934200D0FEE77B683A685A60022165
:102E30003868FFF7A3FF00BF0837BD4680BD00BF5D
:102E40006A626F7380B582B000AF786039607B686A
:102E5000002B04D07B681B68104A934200D0FEE729
:102E60007B685B68002B14D07B685B685B78022B07
:102E70000FD17B685B6801211846FFF77FFF7B68F5
:102E80005B685B683968184600F0B1FF7B68002218
:102E90005A6000BF0837BD4680BD00BF6A626F73CD
:102EA00080B483B000AF03463960FB7197F90730F7
:102EB000002B0ADB3B68DAB20C4997F90730520164
:102EC000D2B20B4483F800230AE03B68DAB2084927
:102ED000FB7903F00F03043B5201D2B20B441A7684
:102EE00000BF0C37BD4680BC704700BF00E100E06A
:102EF00000ED00E070B572B61446EFF30B855FF09D
:102F0000000C002A1FBF8CF30B886C46954683F398
:102F10000B880D4A0123136062B60E46FEF78CFE45
:102F200072B63146FEF7B2FE5FF0000C002C1EBFF9
:102F30008CF30B88A54685F30B88034C0025256090
:102F400062B670BD00BF000000340020402010EACF
:102F50000E0017D001B5FFF7E1FCBDE80440884240
:102F600010D072B6EFF3098222E9F00F80E8044036
:102F7000B1E804400B68B2E8F00F82F3098883F3EC
:102F80000B8862B6704700BFEFF308807146EFF31D
:102F90000982EFF30B830CB406B4FFF709FE8646F3
:102FA00006BC0CBC00F0080001F00801401A01DC6E
:102FB0000DDB70470CB42DE9F00F084C2546264672
:102FC0002746A046A146A246A34630B4704730BC6F
:102FD000BDE8F00F06BC704700BF0000A5EDF5FE90
:102FE00080B584B000AF174BFB60FB68DB68BB604B
:102FF000BB68DB431B0C1B047B60BB689AB27B681D
:10300000134343F48042FB68DA6000216FF00B0049
:10301000FFF746FF00216FF00A00FFF741FF002194
:103020006FF00800FFF73CFF00216FF00400FFF78E
:1030300037FF03216FF00100FFF732FF00BF1037A9
:10304000BD4680BD00ED00E080B400AF00BFBD46CE
:1030500080BC704701F0FEFC009A0A4B9A420FD1E7
:1030600001229043014602460346044605460646B1
:103070000746804681468246834684468646044704
:10308000FEE700BFA5EDF5FE80B582B000AF786029
:1030900000F0EAFC00F0F6FC0346002B02D043F6F9
:1030A000DA3313E000F010FD0346002B02D043F6A4
:1030B000DA330BE000F03CFA0346002B02D043F673
:1030C000DA3303E07B6802221A60002318460837CF
:1030D000BD4680BD80B590B000AF786039607B6838
:1030E000002B02D03B68002B02D143F6DA3394E088
:1030F0000023BB63012387F837307B689B6803F4A8
:103100008063002B14BF0123002387F8363097F823
:1031100037305B0003F00203BB6397F83630BA6BBD
:103120001343BB633B68BA6B1A600023FB636EE01A
:103130007B689B699A007B68D1187B68DA691346C3
:103140005B001344DB000B4430333B63FA6B1346E4
:103150005B0013449B001A463B6B13449B6803F0CF
:103160000803002B4DD0002387F82F300023BB62CB
:1031700000BF97F82F3083F00103DBB2002B02D0A1
:1031800043F6DA3349E0FA6B13465B0013449B00C5
:103190001A463B6B13441B687B627B6A1B68002BDF
:1031A00031D07B6A1B68184600F052FD97F8373023
:1031B00083F00103DBB2002B26D01A4B1B685A1C8C
:1031C00018490A60FB607B6A1B683B617B6A5B682D
:1031D0007B610023BB6101237B770023BB77012345
:1031E0003B7707F10C0319460F48FDF7DDFF034657
:1031F00087F8233097F82330002B05D043F6DA33D5
:103200000BE000BF00E000BFFB6B0133FB637B689A
:103210001B6AFA6B9A428BD3002318464037BD468F
:1032200080BD00BF04340020802D002080B487B012
:1032300000AF78603960EFF314833B613B69FB605A
:103240003B6803F00203002B0CBF01230023DAB21A
:103250003B7B62F300033B73FB687B617B6983F319
:103260001488BFF36F8F00BF00BF002318461C37C0
:10327000BD4680BC704790B591B000AFF860B960B2
:103280007A60FB687B627B6A43E800F3BB61BB69E1
:103290003B62FA68BB681344013BBB62BB6A43E80C
:1032A00000F37B617B69FB6197F82330BB63FB7F95
:1032B0007B63FB683B63FEF789FA0246BB6B934274
:1032C0004BD3FEF78AFA02467B6B934245D8B86B24
:1032D000FEF76FFA02463B6BD31A0133FB623B6B7E
:1032E0007A68F96A184605F0D5F90346002B01D132
:1032F000002387E0BB6B0133FB6315E0FB6B1846D3
:10330000FEF74CFA38633C6BFEF76EFA03467A68B8
:103310001946204605F0BEF90346002B01D10023D3
:1033200070E0FB6B0133FB63FB6B7A6B9A42E5D871
:10333000786BFEF733FA3863FA68BB681A443B6B64
:10334000D31AFB623B6B7A68F96A184605F0A2F95A
:103350000346002B55D1002354E0FEF76AFA0246DB
:10336000BB6B93424BD3FEF76BFA02467B6B9342E7
:1033700045D8B86BFEF74EFA02463B6BD31A0133C1
:10338000FB623B6B7A68F96A184605F083F90346DD
:10339000002B01D1002335E0BB6B0133FB6315E04B
:1033A000FB6B1846FEF728FA38633C6BFEF74FFAC2
:1033B00003467A681946204605F06CF90346002B4F
:1033C00001D100231EE0FB6B0133FB63FB6B7A6BC7
:1033D0009A42E5D8786BFEF70FFA3863FA68BB6853
:1033E0001A443B6BD31AFB623B6B7A68F96A184646
:1033F00005F050F90346002B03D1002302E000231F
:1034000000E0012318464437BD4690BD80B58EB01C
:1034100000AFF860B9607A603B6000237B637B6833
:10342000002B01D100237FE0FB6803F00203002B97
:1034300003D17B6B43F004037B63FB6803F0010360
:10344000002B18D0EFF39483FB62FB6A3B6297F882
:10345000203003F00103DBB2002B04D07B6B43F080
:1034600004037B6303E07B6B23F004037B637B6BD0
:1034700043F012037B633B6803F00603062B04D181
:103480007B6B43F001037B630CE03B6803F00203BA
:10349000002B04D07B6B43F008037B6302E04CF20B
:1034A000DA2341E0BB687A6B7968184605F0F2F8D8
:1034B0000346002B14BF01230023DBB23B633B6BAD
:1034C000002B2AD1BB687B627B6A43E800F37B61F7
:1034D0007B69FB61BA687B681344013BBB62BB6AD2
:1034E00043E800F33B613B69BB61BB7F23F07F0393
:1034F000DBB2002B11D0BB7E23F07F03DBB2002BAD
:103500000BD0FA7FFB7E9A4207D0BB687A6B796852
:103510001846FFF7B0FE03463B633B6B002B01D020
:10352000002301E06FF07F0318463837BD4680BDA9
:1035300080B586B000AF5548FDF7C5FE544B1B68FB
:103540005A1C53490A603B60524BDB687B60514B0D
:103550001B69BB600123FB6003237B740023BB74E6
:1035600000233B743B4619464848FDF71DFE0346C1
:10357000FB75FB7D002B02D043F6DA3381E0444B30
:103580001B685A1C42490A603B60434B7B60434BBB
:10359000BB600123FB6003237B740023BB74002307
:1035A0003B743B4619463948FDF7FEFD0346FB7563
:1035B000FB7D002B02D043F6DA3362E0344B1B680C
:1035C0005A1C33490A603B60354B7B60354BBB600E
:1035D0000123FB6003237B740023BB7400233B7433
:1035E0003B4619462948FDF7DFFD0346FB75FB7D89
:1035F000002B02D043F6DA3343E0254B1B685A1CFC
:1036000023490A603B60284B7B60284BBB60022348
:10361000FB6001237B740023BB7401233B743B4696
:1036200019461A48FDF7C0FD0346FB75FB7D002BCC
:1036300002D043F6DA3324E0154B1B685A1C1449B8
:103640000A603B601A4B7B601A4BBB600223FB6035
:1036500001237B740023BB7401233B743B46194652
:103660000A48FDF7A1FD0346FB75FB7D002B02D048
:1036700043F6DA3305E0012201210448FDF764FD39
:10368000002318461837BD4680BD00BF802D00209E
:1036900004340020F450000040510000A08A0000D3
:1036A000000B0000000B0000201C0020401C00202C
:1036B000001C0020201C002080B483B000AF786084
:1036C00039607A683B689A4201D100230CE07B683C
:1036D00003F00203002B06D03B6803F00203002B2B
:1036E00001D0002300E0012318460C37BD4680BC02
:1036F0007047000080B483B000AF0346FB7197F9B8
:103700000730002B0BDBFB7903F01F02064997F90A
:1037100007305B09012000FA02F241F8232000BFC4
:103720000C37BD4680BC704700E100E080B483B038
:1037300000AF0346FB7197F90730002B0CDBFB79D8
:1037400003F01F02074997F907305B09012000FACF
:1037500002F2603341F8232000BF0C37BD4680BC25
:10376000704700BF00E100E080B483B000AF0346C3
:10377000FB7197F90730002B24DB154A97F90730C6
:103780005B09A03352F82310FB7903F01F030122D9
:1037900002FA03F3DA430E4897F907305B090A404F
:1037A000A03340F823200A4A97F907305B09A03379
:1037B00052F82320FB7903F01F0322FA03F303F0EE
:1037C000010300E0002318460C37BD4680BC70475B
:1037D00000E100E080B483B000AF03463960FB71C4
:1037E00097F90730002B0ADB3B68DAB20C4997F9EE
:1037F00007305201D2B20B4483F800230AE03B6841
:10380000DAB20849FB7903F00F03043B5201D2B24C
:103810000B441A7600BF0C37BD4680BC704700BF12
:1038200000E100E000ED00E080B400AF044B1B6855
:10383000034A23F00103136000BFBD4680BC7047FC
:10384000D0ED00E080B584B000AFF8607A601A4631
:103850000B46FB721346BB72FB7AFA689033DB00AF
:1038600013445B6803F00103002B06D00D4B0E4A96
:1038700040F25B110D4803F0FBFEFA7AFB689032D0
:10388000796843F83210BB7A002B06D0FB7AFA68CD
:103890009033DB00134401225A6000BF1037BD464D
:1038A00080BD00BF4C500000085100007C5000005B
:1038B00080B584B000AFF8607A601A460B46FB72A0
:1038C0001346BB72FB7AFA689833DB0013445B68DB
:1038D00003F00103002B06D00D4B0E4A4FF4B571D7
:1038E0000D4803F0C5FEFA7AFB689832796843F810
:1038F0003210BB7A002B06D0FB7AFA689833DB00D3
:10390000134401225A6000BF1037BD4680BD00BF7E
:10391000BC500000205100007C50000080B582B0F7
:1039200000AF78600B46FB70FB787A680021034893
:10393000FFF788FF00BF0837BD4680BD003000504C
:1039400080B582B000AF03463960FB711346BB718E
:10395000BB79F9793A680348FFF7AAFF00BF083737
:10396000BD4680BD0030005080B582B000AF7860A9
:103970000B467B807B88002B0ED1FDF7B3FBBFF39A
:103980006F8F00BF7B680022C3F84025BFF36F8FA5
:1039900000BFFDF7B7FB03E07A887B68C3F84025DA
:1039A00000BF0837BD4680BD80B500AF00216FF075
:1039B0000800FFF70FFF044B5B6A034A43F47023D0
:1039C00053620023184680BD00ED00E080B483B050
:1039D00000AF094BDB687B607B689BB27B607A68D9
:1039E000064B13437B60044A7B68D3600023184670
:1039F0000C37BD4680BC704700ED00E00800FA05BA
:103A000080B400AF00231846BD4680BC704700005C
:103A100080B582B000AF0023FB7109E00A4AFB7950
:103A2000A0334FF0FF3142F82310FB790133FB71D3
:103A3000FB790F2BF2D90320FFF796FE00231846DF
:103A40000837BD4680BD00BF00E100E080B500AF93
:103A5000FDF786FD0320FFF769FE0320FFF74AFE0E
:103A60000023184680BD000080B500AFFFF7DCFEE4
:103A7000034B1B68024A43F00203136000BF80BD82
:103A8000D0ED00E080B500AFFDF790FD0B4B5B681B
:103A90000A4A926811461846FDF7CEFD08490948C2
:103AA000FDF7F0FD054BDA68044B1B69013B194635
:103AB0001046FDF711FE0023184680BDF4500000AB
:103AC000FFFF03200080002080B500AF00214448A4
:103AD000FDF7F4FE00214FF05020FDF7EFFE00212E
:103AE0004048FDF7EBFE00213F48FDF7E7FE0021CF
:103AF0003E48FDF7E3FE00213D48FDF7DFFE0021D3
:103B00003C48FDF7DBFE00213B48FDF7D7FE0021D6
:103B10003A48FDF7D3FE00213948FDF7CFFE0021DA
:103B20003848FDF7CBFE00213748FDF7C7FE0021DE
:103B30003648FDF7C3FE00213548FDF7BFFE0021E2
:103B40003448FDF7BBFE00213348FDF7B7FE0021E6
:103B50003248FDF7B3FE00213148FDF7AFFE0021EA
:103B60003048FDF7ABFE00212F48FDF7A7FE0021EE
:103B70002E48FDF7A3FE00212D48FDF79FFE0021F2
:103B80002C48FDF79BFE00212A48FDF797FE0021F7
:103B90002948FDF793FE00212848FDF78FFE0021FC
:103BA0002748FDF78BFE00212648FDF787FE002100
:103BB0002548FDF783FE00212448FDF77FFE012103
:103BC0000020FFF7ABFE012200210020FFF7B8FE26
:103BD00001211C48FFF7C8FE0023184680BD00BF26
:103BE00000400050008000500090005000A00050A5
:103BF00000B0005000E0005000F000500000015004
:103C00000010015000400150005001500070015060
:103C10000080015000B0015000C0015000D00150A0
:103C200000E0015000F0015000000250001002506E
:103C3000002002500030025000600250008002500C
:103C400000A002500090035000A0035000258450B3
:103C500080B582B000AF786001217868FDF700FE82
:103C600000BF0837BD4680BD80B586B000AF0346B3
:103C7000FB714FF0FF333B610023FB6000F09AFBC8
:103C8000B86000237B6114E00E4A7B6952F8333040
:103C9000BA689A420AD1FA790A497B69DB000B4477
:103CA0005B689A4202D100233B6106E07B690133E5
:103CB0007B617A69FB689A42E6D33B6918461837FC
:103CC000BD4680BD3851000080B400AF034B0122D7
:103CD0001A6000BFBD4680BC704700BF083400209A
:103CE00080B588B000AF78607B681B68FB777B6825
:103CF00004331B68BB617B6808331B68FB82204B65
:103D00001B685B681C3B3B614FF0FF33FB603B690A
:103D1000D868B969FA8A0623FFF778FBF860FB6870
:103D2000002B03D07B6803221A6026E0154B1B682A
:103D3000012B03D07B6803221A601EE0FB7F18462C
:103D4000FFF792FF0346002B03D07B6803221A6023
:103D500013E0FB8A032B03D87B6803221A600CE074
:103D6000BB69BB60BB6842F216021A80BB680422C2
:103D70005A807B6800221A6000BF2037BD4680BD94
:103D8000F43300200834002080B485B000AF7860A0
:103D90007B68FB60FB6883F30B8800BF00BF1437B0
:103DA000BD4680BC7047000080B483B000AF78602F
:103DB0007B6803F00703002B00D0FEE77B68083B1D
:103DC0007B607B68064A1A607B6804331A46044BA2
:103DD00013607B6818460C37BD4680BC704700BF37
:103DE000A5EDF5FE04460D46A546284700BF80B464
:103DF00085B000AF786039607B68FB60FB681B6949
:103E0000002B09D0FB681B691A463B681360FB68EE
:103E10004FF0EE325A6104E0FB681B681A463B68BB
:103E2000136200BF1437BD4680BC704705484FF091
:103E300080510160BFF34F8FBFF36F8F704700BF9A
:103E40001846000004ED00E080B588B000AFF860CF
:103E5000B9607A603B60FB681B68FB61FB689B682C
:103E6000BB61F869FFF7A0FF03467B617B69403BBC
:103E7000BA699A4201D9FDF76FFE7B69403B7B61CD
:103E800040220021786901F05EFA7A687B691A6243
:103E90007B69BA689A637B693A685A637B694FF0B9
:103EA0008072DA63FB686FF002025A607A69FB681D
:103EB0001A6000BF2037BD4680BD80B586B000AF18
:103EC00078607B687B617B691B6820333B617B6921
:103ED0009B681846FFF758FF3B69FB60FB6883F35C
:103EE000098800BF7B695B6818461837BD4680BDEE
:103EF00080B483B000AFEFF3108372B67B607B6851
:103F000018460C37BD4680BC704780B483B000AF04
:103F100078607B6883F3108800BF0C37BD4680BC97
:103F20007047000080B485B000AF78600B4B1B6811
:103F3000013303F00703094A13607B68084A1268DB
:103F40009B1ADA00054B1B6813440133FB60FB68C6
:103F500018461437BD4680BC704700BF403900206A
:103F6000842D002080B485B000AF78607B68002B82
:103F700001D1002307E07B68013BDB08044A12689B
:103F80001344FB60FB6818461437BD4680BC70477D
:103F9000842D002080B582B000AF0C4B1B68184602
:103FA00000F0D9FC78607B68002B01D1002308E089
:103FB00090220021786801F0C6F97B6800225A60DF
:103FC0007B6818460837BD4680BD00BF842D0020A1
:103FD00080B582B000AF7860094B1B6879681846DD
:103FE00000F0F0FC034683F00103DBB2002B02D0AB
:103FF0006FF0FC0300E0002318460837BD4680BD83
:10400000842D002080B584B000AF78600023FB6071
:104010007B68002B00D1FEE7FFF76AFF0346FB60D9
:10402000064B1B687968184600F0B8FCFB68184618
:10403000FFF76BFF00BF1037BD4680BD842D002009
:1040400080B588B000AF7860396000237B610023C1
:10405000FB6000233B61FFF74BFF0346FB607B687F
:104060004833BB617B689B6CFB6112E0FB69DB68DA
:104070001B685B693A689A4204D1BB697B613B6902
:1040800001333B61FB698C33BB61FB69D3F88C3036
:10409000FB61FB69002BE9D17B69002B12D07B69A6
:1040A0001B68FB617B691B68D3F88C207B691A60F5
:1040B0003B69012B06D17B689A693B68DB431A4058
:1040C0007B689A61FB681846FFF71FFFFB6918467B
:1040D0002037BD4680BD000080B485B000AF786059
:1040E0000023FB60134B5B68BB601AE0BB681B6876
:1040F0005B687A689A420FD1FB68002B0AD0BB68D4
:104100009A68FB689A600B4B5A68BB689A60094AC8
:10411000BB685360BB6808E0BB68FB60FB689B68DA
:10412000BB60BB68002BE1D1002318461437BD46A5
:1041300080BC70470C34002080B483B000AF78603E
:1041400039607B68002B00D1FEE77B681B689B68A9
:1041500003F48063002B03D0B3F5806F09D011E026
:104160007B681B68DB683A689A420ED96FF0FA03E5
:104170000FE07B681B68DB683A689A4207D06FF0F3
:10418000FA0306E06FF0FA0303E000BF00E000BFAF
:10419000002318460C37BD4680BC704780B588B0F8
:1041A00000AFF860B9601346FB710023BB61BB68C8
:1041B000002B00D1FEE7FB79002B09D0BB681B6800
:1041C0009B6803F48073002B2FD16FF0FC032DE06C
:1041D000184B1B685B681C3BBB61BB69002B01D1A2
:1041E000FDF7BAFCBB691B6830337B610023FB61C0
:1041F0000AE0FB699B007A6913441B68FA689A42DB
:1042000009D0FB690133FB61BB691B689A69FB69D3
:104210009A42EED800E000BFBB691B689A69FB694F
:104220009A4202D16FF0FC0300E0002318462037C9
:10423000BD4680BDF433002080B584B000AF786007
:104240007868FFF78FFEF860F868FFF7C1FE034655
:10425000002B01D000230DE000F0ACF8B860FB6843
:10426000DB685B681B685B68BA689A4201D0002310
:1042700000E0FB6818461037BD4680BD80B586B0AB
:1042800000AFF860B9607A603B60FB68002B00D13A
:10429000FEE7BB68002B00D1FEE77B6A002B03D151
:1042A000BB6A002B00D0FEE7FB6A002B03D13B6BFF
:1042B000002B00D0FEE73B6BDB43BA6A9A4200D981
:1042C000FEE7BA6A3B6B1344042B00D9FEE7FB6898
:1042D000183330220021184601F035F8FB68334AC4
:1042E0001A61FB6800225A61FB68BA68DA60304BD9
:1042F0001B685B681C3B1A46FB689A60FB687A6B1C
:10430000C3F88820FB683A6A1A62FB683A689A61C7
:1043100000237B6116E07B69DB007A6A13445968ED
:10432000FB687A690A3243F822107B69DB007A6AFB
:1043300013441968FB687A69093243F832107B69C3
:1043400001337B617A69BB6A9A42E4D300237B61C3
:104350001DE07B69DB00FA6A13445968FB687A69DF
:104360000E3243F822107B69DB00FA6A13441968A5
:10437000FB687A690D3243F83210FA687B690D33B5
:10438000DB00134400225A607B6901337B617A6948
:104390003B6B9A42DDD3FB687A68DA61FB681A6886
:1043A000FB685A6200BF1837BD4680BD6A626F73F2
:1043B000F433002080B483B000AF0B4B1B685B6804
:1043C0001C3B7B607B68002B07D07B681B68002B45
:1043D00003D07B681B685B6801E04FF0FF33184631
:1043E0000C37BD4680BC7047F433002080B582B0E6
:1043F00000AF0C4B1B685B681C3B7B607B68002B31
:1044000001D1FDF7A9FB7B681B689B6803F48063FF
:10441000002B14BF01230023DBB218460837BD462A
:1044200080BD00BFF433002080B584B000AF0346E8
:10443000FB71FB79002B03D000F0FDFAF86002E07D
:10444000FFF7B8FFF860FB79FA68D20FD2B2934257
:1044500001D0FDF781FBFB6818461037BD4680BDD3
:1044600080B584B000AF4FF0FF33FB601D4B186880
:104470000823902240F2AC4100F022FA1A4B0022AD
:104480005A601A4B00225A6000F0DDFA164800F01C
:10449000BBF8B860BB68002B1CD08023144A1349BA
:1044A000B86800F053F97860B86800F000FABB68AB
:1044B0001A68BB680C3319461046FEF70BFEF8600D
:1044C000FB68002B01D0FDF747FB7968B868FEF761
:1044D00057F9DBE700BFFEF7C3F90346184610376C
:1044E000BD4680BD842D0020E43300200C34002024
:1044F0001434002080B485B000AF78607B681B69FD
:104500001E4A934205D07B685B695B78022B00D022
:10451000FEE70023FB6027E07B68FA680E3253F861
:104520002230002B1CD07B68D3F88820FB68DB008E
:1045300013441A687B68F9680D3153F831309A4298
:1045400000D0FEE77B68D3F88820FB68DB001A44C4
:104550007968FB680D33DB000B445B68536000E057
:1045600000BFFB680133FB60FB68032BD4D900BF9D
:1045700000BF1437BD4680BC704700BF6565212170
:1045800080B582B000AF0A4B1B687B60084B1B688C
:104590005033074A1360064B1A68064B1B689A4251
:1045A00001D9FDF7D9FA7B6818460837BD4680BDAA
:1045B000902D0020942D002080B584B000AF78604D
:1045C0000F4B1B68FB607B68002B01D1002313E0BD
:1045D0007A6813465B0013449B001A46084B1B681D
:1045E0001344074A1360064B1A68064B1B689A422D
:1045F00001D9FDF7B1FAFB6818461037BD4680BDFA
:10460000982D00209C2D002080B584B000AF7860EC
:104610007B68002B01D1FDF79FFA494B1B6813F112
:10462000290F07D8464B1B6803F12802454B1B682E
:104630009A4201D300237FE0414B1B68FB60404B53
:104640001B68D943FB689869FB68DA6913465B000D
:1046500013445B001844FB681A6A13465B0013445A
:104660001844FB685A6A13469B00134403440C33F6
:104670009B0099421DD3FB689969FB68DA69134670
:104680005B0013445B001944FB681A6A13465B0025
:1046900013441944FB685A6A13469B0013440B44A5
:1046A0000C339A00264B1B681A44264B1B689A420F
:1046B00001D9FDF751FAFB681B681B0C1B04224A49
:1046C000934201D0FDF748FAFB681B689BB2B3F533
:1046D000817F01D3FDF740FAFB685B68002B01DAAC
:1046E000FDF73AFAFFF74CFFB860BB68FA681A604A
:1046F000FB689969FB68DA6913465B0013445B0049
:104700001944FB681A6A13465B0013441944FB689A
:104710005A6A13469B0013440B440C339A00084B0F
:104720001B681344064A13607B685A68BB68DA64E6
:104730007B68BA685A60BB6818461037BD4680BDB2
:10474000882D00208C2D002000005F5F80B58CB08C
:1047500000AFF860B9607A603B600023BB62FB6821
:10476000002B02D0BB68002B01D1FDF7F5F9FB68E7
:104770001B687B627B6A9B699A007B6A13443033B7
:104780003B627B6ADB691846FFF716FFF86100237E
:10479000FB627EE0FA6A13465B001344DB001946B5
:1047A000FA6A13465B0013449B001A46FB691344E4
:1047B0003A6A0A441A60FA6A13465B0013449B0083
:1047C0001A46FB691344FA685A60FA6A13465B009A
:1047D00013449B001A46FB69134400229A60FA6A4C
:1047E00013465B001344DB001A463B6A13445B69C3
:1047F000BA6A1343BB62FA6A13465B001344DB00D8
:104800001A463B6A13449B68BB61BB6903F400739F
:10481000002B26D07B68002B05D03B68002B02D0F4
:104820003B68802B01D0FDF797F9BB69DBB27B6158
:104830007B691F2B06D87B699B007A6813441B6831
:10484000002B01D0FDF788F9FA6A13465B00134488
:104850009B0019467B699B007A681344FA690A44F5
:104860001A60FA6A13465B0013449B001A46FB6900
:104870001344BA6852689A60FA6A13465B0013449C
:104880009B001A46FB691A44BB685A60FB6A0133F5
:10489000FB627B6ADB69FA6A9A4203D2FB69002BEE
:1048A0007FF478AFBB6A18463037BD4680BD80B410
:1048B00083B000AF786000BF0C37BD4680BC704746
:1048C00080B586B000AFF860B9607A603B60FB6885
:1048D000002B02D03B68002B02D16FF0F80336E0CA
:1048E0007B6804333A6802FB03F30C33BA689A42DC
:1048F00002D06FF0F8032AE0BA680021F86800F0EF
:1049000022FDFB68002B02D0FB6800221A60FB68C6
:104910000C337B6100233B610EE0FB681A687B6906
:104920001A60FB687A691A607A697B6813440433F9
:104930007B613B6901333B613A693B689A42ECD346
:10494000FB687A685A60FB683A689A6000231846E8
:104950001837BD4680BD80B485B000AF78607B68F5
:10496000002B01D1002314E07B68002B03D07B686F
:104970001B68002B01D100230BE07B681B68FB60E8
:10498000FB681A687B681A60FB6800221A60FB6883
:10499000043318461437BD4680BC704780B485B0D8
:1049A00000AF786039603B68043BFB607B681A6845
:1049B000FB681A607B68FA681A6000BF1437BD464E
:1049C00080BC704780B489B000AF786039607B6884
:1049D0000C33FB617B685B680433BB617B689B685D
:1049E0007B61BB697A6902FB03F3FA6913443B619B
:1049F0000023FB603B68FA699A4203D83B683A6936
:104A00009A4201D8002311E03B68043BFB60FA683E
:104A1000FB69D31ABA69B3FBF2F2B96901FB02F27E
:104A20009B1A002B01D0002300E0012318462437F5
:104A3000BD4680BC704780B400AF4FF0FF331846CE
:104A4000BD4680BC704780B400AF00BFBD4680BC8F
:104A50007047000090B583B000AF0A4C00F04EF8EC
:104A60000346A36000F054F803467B607B6883F341
:104A7000888800BF00F058F8034618460C37BD463A
:104A800090BD00BF00ED02E080B582B000AF43F6FC
:104A90005C237B60FEF788FF78607B68002B02D088
:104AA00043F6DA3326E0FEF791FF78607B68002B4F
:104AB00002D043F6DA331DE0FEF7A2FF78607B6890
:104AC000002B02D043F6DA3314E062B600BFFEF7E3
:104AD0009FFF78607B68002B02D043F6DA3309E051
:104AE000FEF7B4FF78607B68002B02D043F6DA3320
:104AF00000E0002318460837BD4680BD80B400AFF3
:104B0000024B1B681846BD4680BC7047F45000003D
:104B100080B400AF034B1B681B681846BD4680BCC1
:104B2000704700BFF450000080B400AF034B1B6817
:104B300004331B681846BD4680BC7047F450000023
:104B4000696E5F637269746963616C5F73656374D6
:104B5000696F6E203E2030002F686F6D652F72796F
:104B6000616E746563682F6E63732F76322E342EF8
:104B7000312F6D6F64756C65732F7465652F746666
:104B80002D6D2F747275737465642D6669726D77FF
:104B90006172652D6D2F706C6174666F726D2F651B
:104BA00078742F7461726765742F6E6F72646963B5
:104BB0005F6E72662F636F6D6D6F6E2F636F7265C0
:104BC0002F6E7266785F676C75652E63000000005B
:104BD0006E7266785F637269746963616C5F736536
:104BE0006374696F6E5F6578697400002128705F77
:104BF0007265672D3E464C4153484E53435B666C8D
:104C00006173685F6E73635F69645D2E52454749E7
:104C10004F4E20262028307831554C203C3C20280F
:104C200038554C29292900002F686F6D652F72793E
:104C3000616E746563682F6E63732F76322E342E27
:104C4000312F6D6F64756C65732F68616C2F6E6F9B
:104C5000726469632F6E7266782F68616C2F6E7252
:104C6000665F7370752E68002128705F7265672D0E
:104C70003E464C4153484E53435B666C6173685FDC
:104C80006E73635F69645D2E53495A452026202860
:104C9000307831554C203C3C202838554C29292966
:104CA000000000002128705F7265672D3E464C4170
:104CB0005348524547494F4E5B726567696F6E5F57
:104CC00069645D2E5045524D20262028307831559C
:104CD0004C203C3C202838554C2929290000000054
:104CE0002128705F7265672D3E52414D52454749FC
:104CF0004F4E5B726567696F6E5F69645D2E5045EC
:104D0000524D20262028307831554C203C3C20281C
:104D100038554C2929290000705F7265672D3E5077
:104D2000455249504849445B7065726970686572C4
:104D3000616C5F69645D2E5045524D2026202830FD
:104D40007831554C203C3C20283331554C292900E2
:104D50002128705F7265672D3E5045524950484981
:104D6000445B7065726970686572616C5F69645DEF
:104D70002E5045524D20262028307831554C203C6D
:104D80003C202838554C29292900000073697A6590
:104D9000203C3D206E73635F73697A6500000000FC
:104DA0002F686F6D652F7279616E746563682F6E01
:104DB00063732F76322E342E312F6D6F64756C65D0
:104DC000732F7465652F74662D6D2F7472757374EF
:104DD00065642D6669726D776172652D6D2F706CDB
:104DE0006174666F726D2F6578742F746172676578
:104DF000742F6E6F726469635F6E72662F636F6D7E
:104E00006D6F6E2F636F72652F6E61746976655F6B
:104E1000647269766572732F7370752E630000007B
:104E2000282873746172745F61646472202B206E31
:104E300073635F73697A65292025202830783830BC
:104E400030302929203D3D2030000000286E73635A
:104E50005F73697A65202620286E73635F73697AB1
:104E600065202D20312929203D3D20300000000003
:104E7000286E73635F73697A65203E3D2033322963
:104E800020262620286E73635F73697A65203C3D77
:104E900020343039362900002828284E52465F53E6
:104EA00050555F547970652A29203078353030307C
:104EB00033303030554C292D3E50455249504849E9
:104EC000445B7065726970685F69645D2E5045521D
:104ED0004D20262028307833554C203C3C2028306B
:104EE000554C29292920213D20282830554C29209E
:104EF0003C3C202830554C29290000002828284E09
:104F000052465F5350555F547970652A2920307896
:104F10003530303033303030554C292D3E504552ED
:104F200049504849445B7065726970685F69645DA7
:104F30002E5045524D20262028307833554C203CA9
:104F40003C202830554C29292920213D2028283172
:104F5000554C29203C3C202830554C292900000084
:104F60006E72665F7370755F666C61736872656799
:104F7000696F6E5F736574006E72665F7370755FE4
:104F800072616D726567696F6E5F736574000000B2
:104F90007370755F726567696F6E735F666C61735E
:104FA000685F636F6E6669675F6E6F6E5F73656380
:104FB0007572655F63616C6C61626C650000000016
:104FC0006E72665F7370755F666C6173686E736333
:104FD0005F736574000000007370755F70657269BF
:104FE00070686572616C5F636F6E6669675F736539
:104FF00063757265000000006E72665F7370755FA6
:105000007065726970686572616C5F7365740000C9
:105010007370755F7065726970686572616C5F63EB
:105020006F6E6669675F6E6F6E5F736563757265DD
:10503000000000000002FF002C0000003001FF0013
:10504000080000004001FF000C0000002128705FF4
:105050007265672D3E445050495B647070695F69AA
:10506000645D2E4C4F434B20262028307831554C20
:10507000203C3C202830554C292929002F686F6D91
:10508000652F7279616E746563682F6E63732F7616
:10509000322E342E312F6D6F64756C65732F6861FD
:1050A0006C2F6E6F726469632F6E7266782F686101
:1050B0006C2F6E72665F7370752E68002128705FAA
:1050C0007265672D3E4750494F504F52545B677091
:1050D000696F5F706F72745D2E4C4F434B202620BA
:1050E00028307831554C203C3C202830554C29291B
:1050F000290000000000010000000100FFFF0F0078
:1051000000FC0000000001006E72665F7370755F46
:10511000647070695F636F6E6669675F7365740062
:105120006E72665F7370755F6770696F5F636F6ED5
:085130006669675F7365740096
:10514000009A204B9A420CD110B50FB41E48694604
:10515000FCF7C2FD0FBC00F0BFF806BC96460C463B
:1051600074470FDFFEE700BF1846009A154B9A42BE
:105170000CD110B50FB415486946FCF7ADFD0FBC56
:1051800000F0AAF806BC96460C4674470FDFFEE70F
:1051900000BF18460CB4029A0A4B9A420DD10CBCBF
:1051A00010B50FB40A486946FCF796FD0FBC00F035
:1051B00093F806BC96460C4674470FDFFEE700BF27
:1051C00018460000A5EDF5FEB91D0000C91D000040
:1051D000111E00000348044B834202D0034B03B16D
:1051E00018477047842E0020842E00200000000005
:1051F0000548064B1B1AD90F01EBA301491002D039
:10520000034B03B118477047842E0020842E0020E2
:105210000000000010B5064C237843B9FFF7DAFF11
:10522000044B13B10448AFF300800123237010BD79
:10523000A82F002000000000848A000008B5044B5D
:105240001BB104490448AFF30080BDE80840CFE734
:1052500000000000AC2F0020848A0000A3F5803AF3
:10526000704700BF174B002B08BF134B9D46FFF73D
:10527000F5FF00218B460F461348144A121A00F01E
:1052800062F80E4B002B00D098470D4B002B00D03E
:1052900098470020002104000D000D48002802D08E
:1052A0000C48AFF3008002F027FA20002900FCF739
:1052B000A5FC02F0FBF900BF0000080000000000A0
:1052C00000000000F80B0020A02E0020B4470020B2
:1052D0000000000000000000002383F300887047F6
:1052E00000BF80B500AFFCF737FC00BF80BDFFF703
:1052F000F8FFFEE700BF80B500AFFCF72DFC00BF54
:1053000080BDFFF7F8FFFEE700BF80B500AFFCF7F8
:1053100023FC00BF80BDFFF7F8FFFEE700BF80B5AC
:1053200000AFFCF719FC00BF80BDFFF7F8FFFEE7F8
:1053300000BF80B500AFFCF70FFC00BF80BDFFF7DA
:10534000F8FFFEE700BF80B487B000AFF860B96037
:105350007A60FB683B61BB68DBB21A4613461B02EE
:1053600013441B041A46BB68DBB21B021343BA6822
:10537000D2B213437B6108E03B695A1C3A61BA68B8
:10538000D2B21A707B68013B7B607B68002B0DD02A
:105390003B6903F00303002BEED107E03B691A1DC4
:1053A0003A617A691A607B68043B7B607B68032BF7
:1053B000F4D805E03B695A1C3A61BA68D2B21A7057
:1053C0007B685A1E7A60002BF4D1FB6818461C37A4
:1053D000BD4680BC704780B487B000AFF860B9604C
:1053E0007A60FB687B61BB683B610AE03A69531CE9
:1053F0003B617B69591C796112781A707B68013BAB
:105400007B607B68002B15D07B6903F00303002BC6
:10541000ECD13B6903F00303002BE7D10AE03A69C2
:10542000131D3B617B69191D796112681A607B68E5
:10543000043B7B607B68032BF1D807E03A69531C7F
:105440003B617B69591C796112781A707B685A1E1E
:105450007A60002BF2D1FB6818461C37BD4680BC31
:105460007047000080B483B000AF084B1B687B60BE
:105470007B685B68002B02D17B681B6800E0044BF3
:1054800018460C37BD4680BC704700BF001C00208A
:105490009D540000FFF7E6FF004700BF90B595B0B0
:1054A00000AF2F4B1B687B647B6C1B683B647B6C81
:1054B0000833FB637B6C5B68012202FA03F3013B58
:1054C000BB633B6C002B06D03B6C98470346002B1C
:1054D00001D003F01EFB4FF00041B86B03F0F7FA68
:1054E000F8640023BB642DE00122BB6C02FA03F3D5
:1054F0007B63FA6C7B6B1340002B20D0BB6C9B0052
:10550000FA6B13441B68002B01D103F002FB3B1D17
:105510001946786B03F0E1FABC68BB6C9B00FA6B30
:1055200013441B683A1D1046984703461946204607
:1055300003F0EAFA7B6BDB43FA6C1340FB64BB6C51
:105540000133BB64FB6C002B04D07B6C5A68BB6CD2
:105550009A42C9D8FB6C002BBDD003F0DAFABAE747
:10556000001C002080B400AF00231846BD4680BC5C
:10557000704700000F4B02689A4206D1C269A3F13E
:105580001023A3F1EF139A4201D0012070478368E2
:10559000012BFAD8C36813B102699342F5D043696D
:1055A0002BB18069C01AB0FA80F0400970471846E4
:1055B000704700BF55AA00FFF8B5164B996829B18E
:1055C0000846FFF7D7FF08B9CB680BB10120F8BD3B
:1055D0000B69002BFBD0104D104E1A68AA42F5D172
:1055E000DA69B242F2D19A68012AEFD8DC68002C5D
:1055F000ECD01A699442E9D05F691FB1D3F818C0A2
:105600006745E3D08C42E1D11946002ADFD013462A
:10561000E3E700BF4839002055AA00FF669911EE64
:10562000002865D070B5374D2B68002B54D0AA6880
:10563000002A51D08342014661D86A6813449842D7
:105640005DD2A0F120063046FFF794FF002856D126
:1056500051F8183C012B52D151F8144C41F8180C58
:1056600051F8100C002C38D0A368002B35D151F81C
:105670001C2C6368203213442061636000B1C46055
:10568000202200213046FFF75EFE2069F0B18368DA
:10569000E3B9264642687368134402692033736095
:1056A0003261D6E9051331B38B6103B159614169A8
:1056B00083697161B361E1B18E61B36903B15E6108
:1056C00002B1D66020220021FFF73DFE2B699B0727
:1056D00002D5FFF771FF90B970BD10B18368002B40
:1056E000D8D0EB6841F8083C03B15E61EE60EDE7AD
:1056F0007047EE60E2E7002BD9D0EB60D6E70120DF
:1057000001F0D4FF483900202DE9F84F3E4D2B68B9
:10571000EC68002B40D0AB68002B3DD000283BD07C
:10572000002939D001FB00F6B6FBF0F0884233D1F6
:10573000301D31D8B10733D026F00301043114B93C
:105740002BE0A4694CB363688B42FAD3D4F808C049
:10575000BCF1000F55D1A0695B1A232B8146676904
:1057600020D80123A360002F47D0B861A06900B101
:10577000476100232A696361D207A36103D5FFF75C
:105780001BFF00283DD12034324600212046FFF780
:10579000DAFD2046BDE8F88F00242046BDE8F88FEA
:1057A0003146CCE7D4F8108001F1200EDFF85CB070
:1057B000DFF85CA004EB0E02203BC2E9013CC2E929
:1057C000034844F80EB0C2F81CA0B8F1000F01D095
:1057D000C8F80C20C2F81890576187B1BA61906977
:1057E00000B1426100236160296922610122C4E99C
:1057F0000533CB07A260C6D5C1E7E860B7E7EA602A
:10580000EEE7012001F052FF4839002055AA00FFC1
:10581000669911EE38B50D46142200210446114850
:10582000FFF791FD1049114800F030F8232D18D9E9
:1058300014F0030304D0043DC3F104021D441444D6
:105840002A4600212046FFF77EFD064B084A0948FC
:10585000A5F12001C3E901541C60E061C4E9002105
:10586000DC6038BD4839002021560000095700008F
:1058700055AA00FF669911EE00207047704700BFDF
:10588000014B1B68184700BFA42D002010B404462C
:10589000034A044B00201460196010BC704700BF1D
:1058A000A82D0020A42D002038B50446406A18B168
:1058B000A16A00F009F9606AFFF7E2FF0021236A9C
:1058C0002C22012B14BF6FF096050D462046C4E92B
:1058D0000911FFF738FD284638BD00BF064B0A46C0
:1058E00093F800C01CF0010F03D00146181D00F012
:1058F00059B86FF0880070475C39002038B5134DF7
:105900002B78DB0702D50024204638BD281D00F087
:1059100047F8044618B900F01DF8044660B100F0DD
:1059200025F80B4800F050F80821084800F0CCF8A2
:1059300000F034F8204638BD00F02EF80446002868
:10594000EDD12B7843F001032B70DCE75C390020AC
:1059500060390020044A002092F8803543F00103AA
:1059600082F88035704700BF64390020F8B5094FD0
:1059700001263C4607F5B065266220462C34FFF729
:1059800093FFAC42F8D197F880356FF3000387F8A6
:105990008035F8BD6439002000207047704700BF93
:1059A0000020704710B582B0002001AB144600F013
:1059B0005FF830B9019BA34218BF6FF0930002B0AB
:1059C00010BD6FF09200FAE70020704710B50C4C44
:1059D000236813B10B4B1B682BB900F089FC30B95D
:1059E0000122084B1A6001232360002010BD0138FA
:1059F000062801D9044810BD044B53F8200010BDFF
:105A0000EC3E0020E83E0020FE8FFFFF3C880000B7
:105A1000144B2DE9F043002814BF04461C46124FD6
:105A2000236883B0BB4219D016460D4620464FF47A
:105A3000147104F1040900F047F804F58E78484623
:105A400000F040FB404600F0CDF82B464A46404669
:105A50000649009600F0E8F908B92760002003B075
:105A6000BDE8F083F03E0020A5BCC95A49610000A2
:105A700070B50D4C1D46002814BF064626460B4B3C
:105A8000306882B098420DD106F58E7000263346FC
:105A90000096144600F0F2F9002818BF34462C6036
:105AA00002B070BD0248FBE7F03E0020A5BCC95A19
:105AB000E88FFFFF38B131B10022014403460130C5
:105AC00081421A70FAD1704738B131B100220144D5
:105AD0000346013088421A70FAD1704770B590B011
:105AE00000287AD03E4C0D464022362106462046FC
