:020000040001F9
:1000000098DB0020BD150100C76A010075150100CD
:1000100075150100751501007515010075150100B4
:100020000000000000000000000000008D11010031
:10003000751501000000000029110100751501006F
:1000400025120100251201002512010025120100D0
:1000500025120100251201002512010025120100C0
:1000600025120100251201002512010025120100B0
:1000700025120100251201002512010025120100A0
:100080002512010025120100251201002512010090
:100090002512010025120100251201002512010080
:1000A0002512010025120100251201002512010070
:1000B0002512010025120100251201002512010060
:1000C0002512010025120100251201002512010050
:1000D0002512010025120100251201002512010040
:1000E0002512010025120100251201002512010030
:1000F0002512010025120100251201002512010020
:10010000251201002512010025120100251201000F
:1001100025120100251201002512010025120100FF
:1001200025120100251201002512010025120100EF
:1001300025120100251201002512010025120100DF
:100140002512010053B94AB9002908BF00281CBF75
:100150004FF0FF314FF0FF3000F00CB8ADF1080C5C
:100160006DE904CE00F008F8DDF804E0DDE90223D3
:1001700004B07047704700BF2DE9F04786468C46B3
:100180000846089E154674461946002B40F0C1806B
:100190008542B2FA82F245D94AB1C2F1200300FA8F
:1001A00002FC954094402EFA03F343EA0C0C4FEA0C
:1001B000154EA8B2230CBCFBFEF80EFB18CC08FBB6
:1001C00000F943EA0C43994528D9EB1808F1FF37A9
:1001D00004D2994502D9A8F102072B44A3EB0903E5
:1001E000A4B2B3FBFEFC0EFB1C330CFB00F044EA94
:1001F0000344A04214D92C190CF1FF3304D2A042BD
:1002000002D9ACF102032C44241A43EA07401EB180
:10021000D440002334607360BDE8F0874746DDE7D3
:100220006346F1E792BB431B01214FEA154EAFB283
:10023000200CB3FBFEFC0EFB1C330CFB07F840EA62
:100240000343984561D9EB180CF1FF3004D298456F
:1002500002D9ACF102002B44A3EB0803A4B2B3FB18
:10026000FEFC0EFB1C330CFB07F744EA0344A742D9
:100270004DD92C190CF1FF3304D2A74202D9ACF1AD
:1002800002032C44E41B43EA0040C0E7C2F1200310
:100290009540944020FA03F12EFA03F34FEA154EED
:1002A0009040AFB20343B1FBFEFC0EFB1C10190CD7
:1002B0000CFB07F841EA0041884522D969180CF186
:1002C000FF3004D2884502D9ACF102002944A1EBE9
:1002D00008019BB2B1FBFEFC0EFB1C110CFB07F7E7
:1002E00043EA01439F420ED9EB180CF1FF3104D2CF
:1002F0009F4202D9ACF102012B44DB1B41EA0041D1
:1003000093E76046E3E76146F7E76046A4E76346A4
:10031000B8E7834206D916B9002108467CE7C6E94A
:1003200000E0F9E7B3FA83F78FB9834201D372454E
:1003300008D8BEEB020460EB030301209C461EB903
:10034000002169E73846FAE7C6E9004CF8E7C7F14B
:10035000200CBB400EFA07F522FA0CF42EFA0CF131
:10036000BA401C4320FA0CF3B8404FEA1449014349
:100370001FFA84FEB3FBF9F809FB18300B0C08FBDD
:100380000EFA43EA00439A4540D9E31808F1FF30DA
:1003900004D29A4502D9A8F102002344A3EB0A0330
:1003A00089B2B3FBF9F809FB183308FB0EFE41EAEA
:1003B00003418E452CD9611808F1FF3304D28E45D4
:1003C00002D9A8F10203214443EA0040A1EB0E0147
:1003D000A0FB02984145CE46434602D306D14D4587
:1003E00004D20138B9EB020E68EB0403002EA7D04B
:1003F000B5EB0E0261EB030101FA0CFC22FA07F3E4
:10040000F9404CEA0303C6E9003199E74046C5E7E5
:100410004346D9E7034613F8012B002AFBD1181AEB
:100420000138704710B5144807F0B2FB00B910BD91
:10043000114807F0ADFB0028F9D04FF4D0110F4858
:1004400005F022FD0028F2DB4FF480310C4805F066
:100450001BFD0028EBDB084C0621204605F02BFD98
:10046000021E18BF01220221204605F044FD64202F
:1004700005F04EFDEFE700BFEC8401001888010095
:100480002088010008B5024B1B68984708BD00BFD3
:1004900080C50020014B1860704700BF80C5002058
:1004A00000B583B002460B4600210091024800F0DF
:1004B00089F903B05DF804FB850401002DE9F043E0
:1004C00083B0044608461546238B13F0080F05D168
:1004D00003F0070600230093019355E0012909D09A
:1004E00043F02003238385F31188BFF36F8F03B09C
:1004F000BDE8F08343F010032383F4E7204605F0C2
:1005000066FF43E0D4F814904A466946204605F059
:1005100077FF4FF00008238B03F00707B74269D03D
:10052000A268002A66D0012243F00803238385F3E2
:100530001188BFF36F8F002A64D1009B2BB14B460B
:100540003A466946204605F0D4FFB8F1000F02D0C4
:1005500034492046C0474FF02003EFF3118583F361
:100560001288BFF36F8F238B23F008032383238B21
:1005700013F0100F4CD023F0100323830120268B9F
:1005800006F007060028AED00228B7D00028AAD06F
:10059000013804282AD801A353F820F005050100EA
:1005A000ED050100B1050100C5050100D9050100F7
:1005B0002369D3F800800621204605F0DEFE4FF0C7
:1005C0000009A8E72369D3F804800421204605F038
:1005D000D4FE4FF000099EE72369D3F80880052177
:1005E000204605F0CAFE4FF0000994E74FF00008DE
:1005F000C14690E7009A0AB1002295E7B8F1000FD2
:1006000092D1B4E74A463946204605F0BEFE94E74B
:1006100013F0200F04D023F0200323830220AEE741
:100620000020ACE72165010084460268002006E056
:1006300000EB8000013203EB4003A3F1300013789C
:100640000349C95C11F0040FF2D1CCF800207047C7
:10065000F28C010084460846012226E09CF8003016
:1006600043F004038CF80030F2B101301CE09CF838
:10067000003043F008038CF80030F5E79CF80030B8
:1006800043F010038CF80030EEE79CF8003043F0A4
:1006900020038CF80030E7E79CF8003043F040037B
:1006A0008CF80030E0E7002242B30378203B102BA7
:1006B000F9D801A151F823F07D060100A706010039
:1006C000A70601008B060100A7060100A70601008E
:1006D000A7060100A7060100A7060100A706010062
:1006E000A70601006F060100A70601005D060100D4
:1006F000A7060100A7060100990601009CF800303A
:1007000003F04403442B00D070479CF800306FF393
:1007100086138CF80030F7E72DE9F84F05460C46B4
:10072000934699460A9FD078254B13F800A00AF00B
:10073000030A06F020F9064615E0BAF1010F20D0B1
:10074000D2B25732D2B207F8012D3246434628467C
:100750002146FFF7F7FCB54274F1000415D34F456D
:1007600013D905460C464FF000083246434628464A
:100770002146FFF7E7FC092ADFD8D2B23032D2B2E5
:10078000E1E7D2B23732D2B2DDE79BF8003013F0A6
:10079000200F03D0082E04D0102E09D03846BDE813
:1007A000F88F9BF8023043F008038BF80230F5E72E
:1007B0009BF8023043F010038BF80230EEE700BFE5
:1007C000F28C01002DE9F04F91B006460D4691469E
:1007D0000393002499F80000002800F0B98225282E
:1007E00008D009F101092946B0470028C0F2B182BA
:1007F0000134EFE7002304930593069307930893CE
:100800000993494606A806F094F802909DF819301D
:1008100013F0010F00F09780039B1A1D03921F68CD
:10082000002FC0F288809DF8193013F0040F00F0FB
:100830009C80039B1A1D0392D3F800A0BAF1000F0D
:10084000C0F28A800023079308939DF81A3003F0C2
:1008500007039DF81910C1F3C301012B00F08E802E
:10086000022B00F0D380042B00F02481032B00F036
:100870003B819DF8188018F0030B40F03B819DF8F8
:100880001B30253B532B00F2CA81DFE813F04001F7
:10089000C801C801C801C801C801C801C801C80110
:1008A000C801C801C801C801C801C801C801C80100
:1008B000C801C801C801C801C801C801C801C801F0
:1008C000C801C801C801C801C801C801C801C801E0
:1008D000C801C801C801C801C801C801C801C801D0
:1008E000C801C801C801C801C801C801C801C801C0
:1008F000C801C8018101C801C801C801C801C801F7
:10090000C801C801C801C801C8015E016701C8016A
:10091000C801C801C8016701C801C801C801C801F0
:10092000BD018101A101C801C8014D01C8018101BA
:10093000C801C80181019DF8183043F004038DF807
:1009400018307F426FE79DF91830002B02DB4FF023
:10095000FF3768E7079F66E79DF819306FF341039B
:100960008DF819304FF0FF3A6CE713F0020F02D008
:10097000DDF820A066E74FF0FF3A63E7CB1E042BBB
:1009800004D8DFE803F00B1D29353500039B1A1D41
:1009900003921B68DA170493059206E0039B1A1D65
:1009A00003921B68DA1704930592012928D00229C3
:1009B0007FF45FAFBDF91030DA170493059258E762
:1009C000039B073323F0070303F108020392D3E9E3
:1009D0000023CDE90423E8E7039B073323F0070353
:1009E00003F108020392D3E90023CDE90423DCE7F5
:1009F000039B1A1D03921B68DA1704930592D4E730
:100A00009DF91030DA170493059232E7CB1E042BC0
:100A100004D8DFE803F00B1F35414100039B1A1D8A
:100A200003921B680493002305931EE09DF81B307E
:100A3000632B07D0039B1A1D03921B6804930023AA
:100A4000059312E0039B1A1D03921B680493002375
:100A500005930AE0039B073323F0070303F1080221
:100A60000392D3E90023CDE9042301291CD00229F4
:100A70007FF4FFAEBDF81030049300230593F8E631
:100A8000039B073323F0070303F108020392D3E922
:100A90000023CDE90423E8E7039B1A1D03921B689A
:100AA000049300230593E0E79DF81030049300239E
:100AB0000593DEE608290BD0039B073323F00703D9
:100AC00003F108020392D3E90023CDE90423D0E621
:100AD000039B073323F0070303F108020392D3E9D2
:100AE0000023CDE90423C4E6039B1A1D03921B686F
:100AF0000493BEE6029F3B464A462946304605F02F
:100B00006EFF0028C0F225810444B94662E62946FA
:100B10002520B0470028C0F21C810134D8460DF1D1
:100B20003E0A4FF000097FE0DDF81090BAF1000FA7
:100B300006DA4846FFF76EFC09EB000AD84673E078
:100B40005146484607F026FBF6E7049B8DF828300F
:100B5000D8460DF1290A0DF1280965E018F0080FB3
:100B600005D118F0100804D04FF0200801E04FF034
:100B70002B08049A059B002B02DB0492059308E0E6
:100B8000524263EB4303049205934FF02D0800E0BB
:100B9000D8460DF13E0300930AAB06AADDE9040135
:100BA000FFF7BAFD8146BAF1000F6CDB0DF13E0391
:100BB000A3EB09039DF818206FF386128DF8182017
:100BC0009A4563D9AAEB030307930DF13E0A2BE084
:100BD000049828B9D846DFF880A1AAF1050923E0D6
:100BE0000DF13E0300930AAB06AA0021FFF794FD26
:100BF00081469DF81A3043F010038DF81A3078239F
:100C00008DF81B30D846CEE72246049906A805F099
:100C1000C7FED8460DF13E0A4FF0000904E0D84661
:100C20000DF13E0A4FF00009B9F1000F00F08D8080
:100C3000AAEB0902B8F1000F00D001329DF81A109A
:100C400011F0100F25D00232079B134411F0400F12
:100C500001D0089A1344002F31DDFF1A9DF8183097
:100C600013F0040F2BD113F0400F17D0B8F1000F81
:100C700017D029464046B04700286ADB0134D846E1
:100C80004FF0300B0FE00DF13E0ACDE70DF13E0ABB
:100C9000CAE711F0080FD7D00132D5E74FF0200B8B
:100CA00001E04FF0300B3B465F1E002B07DD29466D
:100CB0005846B04700284CDB01343B46F4E7B8F116
:100CC000000F05D029464046B047002841DB0134DB
:100CD0009DF81A30C3F30012C3F3C0031A4305D0C2
:100CE00029463020B047002833DB01349DF81A3004
:100CF00013F0100F06D029469DF81B00B0470028BE
:100D000027DB0134079B03F1FF38002B07DD294661
:100D10003020B04700281CDB01344346F3E753463C
:100D20004A462946304605F05AFE002811DB0444A5
:100D3000002F07DD29462020B047002809DB0134B9
:100D4000013FF5E7DDF8089044E5DDF8089041E55E
:100D5000204611B0BDE8F08F418801004FF020021D
:100D6000EFF3118382F31288BFF36F8F044A0121DE
:100D7000C2F8401583F31188BFF36F8F00207047CE
:100D80000090034030B108B5034B800143F00103EC
:100D9000984708BD704700BF1088010006F0ABBC43
:100DA00070B505464FF02003EFF3118683F31288E8
:100DB000BFF36F8F0E4B1C680DE0A2683AB10D4B6C
:100DC0001B7C03EB43030C4911F823009047234697
:100DD000246804B123B12CB1002DEED06268EDE798
:100DE0001C46F8E786F31188BFF36F8F70BD00BF14
:100DF000B0C80020F4CD0020A4C8002008B5064BE0
:100E000023B14178007805F014FE08BD002383F378
:100E10001188BFF36F8FF8E7336A010070B50E4B8E
:100E20001C7C21460D4805F00AFE00B970BD650026
:100E300004EB44000A4E06EB8000FFF7DFFF0020C2
:100E4000FFF7AEFF2B19990006EB830300227250C7
:100E50005A609A60EAE700BFF4CD0020B8C80020CD
:100E6000A4C80020F8B50546384B1C7C4FF0200381
:100E7000EFF3118683F31288BFF36F8F04EB440204
:100E8000334B13F82230002B39D0324B03EB820C5A
:100E90002F4F4FEA820E07EB820393E807008CE89E
:100EA0000700002307F80E3086F31188BFF36F8F19
:100EB00004EB4403274A12F82330002B44D0B5F149
:100EC000FF3F2BD103F0AAFF0120FFF769FF214666
:100ED000214805F0CCFD214B5BB11E4A04EB4403D5
:100EE00002EB830304EB4404597812F8240005F064
:100EF00098FDFFF793FF04F07DF90120F8BD01464E
:100F0000204600F031F80028CED004EB4401114B0C
:100F100003EB810307C883E80700C5E704EB44023D
:100F20000C4B03EB82039868410CC0030C4BC018B8
:100F30000C4A4FF0000341F10001FFF703F90121D2
:100F4000281A01F04DFCBDE70020D7E7F4CD0020C2
:100F500098C80020A4C80020B8C80020236A010057
:100F60003F420F0040420F002DE9F04182B00E4693
:100F700001A900F045F8441E24B207E0B6F1FF3F96
:100F800033D08044B04530D9013C24B2002C2BDB57
:100F9000019B04EB440203EB8205697813F82200FD
:100FA00005F074FD0028EFD16868410CC003114FB3
:100FB000C019114A4FF0000341F10001FFF7C2F8D8
:100FC0008046AB68590CDB03D8190B4A4FF000037D
:100FD00041F10001FFF7B6F8084B1B68B3F1FF3F82
:100FE000CCD08342CAD8CFE70025284602B0BDE85E
:100FF000F08100BF3F420F0040420F0084C5002037
:1010000008B9024B0B600020704700BF4C880100FC
:10101000014910220A60704710ED00E072B64040AE
:1010200080F31188BFF36F8FBFF34F8F30BF62B66D
:10103000BFF36F8F704700BF72B6494081F31188CC
:10104000BFF34F8F20BF80F3118862B6704700BF97
:10105000002807DB00F01F02400901239340024AE9
:1010600042F82030704700BF00E100E0002808DBB4
:101070004901C9B200F1604000F5614080F80013F9
:10108000704700F00F004901C9B2014B1954704775
:1010900014ED00E04209054B53F8222000F01F0038
:1010A000012303FA00F01040704700BF00E100E0A8
:1010B00030BFFFF7FDBF00BF08B50B4B0B4A22F056
:1010C0007F029A60BFF34F8FBFF36F8FD3F88820F2
:1010D00022F47002C3F8882003F05EFB04F0DEF90E
:1010E00000F052FA03F0B4FB00ED00E00000010054
:1010F0000A4A9368C3F8A80009490968C3F8AC1004
:1011000008494B6843F080534B60002383F31188F8
:10111000BFF36F8F9368D3F8AC007047F4CD002015
:101120000C8C010000ED00E016498A6882F8B1E0FD
:101130004FF030001044EFF3098C80E8F01F2020BE
:1011400080F31288BFF36F8F0F4F4FF000668A69EC
:101150008A603E6092F9B1E0D2F8A8000023C2F89C
:10116000A83080F3118802F1300090E8F01F8CF372
:10117000098802F1000004B505F0ABFCBDE80440AD
:1011800070470000F4CD002004ED00E01EF0040FD5
:101190000CBFEFF30880EFF30980816911F8021C9E
:1011A0000229FFD001B505F077FC01BD10B4A2F112
:1011B0002004104942F8081C21F0010142F8081CE3
:1011C00042F8203C019B42F81C3C029B42F8183C30
:1011D000039B42F8143C4FF0807342F8043C0465D2
:1011E0000023C0F8A830C0F8B030BC2380F8B1307C
:1011F00010BC70475D5F0100094B9860D0F89830D3
:1012000083F30B88104681F30988002163B681F3CC
:101210001188BFF36F8F0022002304F09FFE00BFF0
:10122000F4CD002001B572B60B4A506900281EBFEC
:101230000021516106F085FD62B6EFF30580A0F153
:1012400010004FEAC0000549014409C99847BDE8AC
:101250000140034908470000F4CD00203485010017
:1012600065120100044B99689869884203D00349CC
:101270004FF080520A607047F4CD002004ED00E08A
:1012800038B51446264B9B6A13F0100F1AD110255F
:10129000234B9B6A13F0080F00D01225204B9B6A4A
:1012A00013F0020F11D01E4B5A6B9B6A13F0800F84
:1012B0000AD0002930D01A4A936A23F0800393623F
:1012C000132502E01125E3E71325154B9B6A13F064
:1012D000010F00D01425124B9B6A13F0200F1DD173
:1012E0000F4B9B6A13F0100F01D10D4B9B6A0C4BF7
:1012F0009B6A13F0200F04D0094A536A23F4005369
:101300005362074A936A43F0FF039362012105F099
:10131000E5FB2070284638BD1325D6E71525DFE705
:1013200000ED00E038B51546204B9B6A13F4805F52
:1013300019D116241D4B9B6A13F4006F00D018249A
:101340001A4B9B6A13F4007F10D0184B9A6B9B6A60
:1013500013F4004F09D0D9B1144A936A23F400431F
:101360009362192402E01724E4E719240F4B9B6AC7
:1013700013F4806F00D01A240C4B9B6A13F4807F07
:1013800008D10A4B9B6A13F4005F04D01C2402E0CE
:101390001924EBE71B24054A936A43F47F439362C5
:1013A000012105F09BFB2870204638BD00ED00E0D0
:1013B0001A4B9B6A13F0007F2BD11D20174B9B6AA1
:1013C00013F0807F00D01F20144B9B6A13F4801F02
:1013D00000D00220114B9B6A13F4002F00D0212073
:1013E0000E4B9B6A13F4802F00D022200B4B9B6A7C
:1013F00013F4003F00D02320084B9B6A13F4803F76
:1014000009D1064A936A6FEA03436FEA1343936272
:1014100070471E20D2E72420F3E700BF00ED00E074
:1014200081690D4B5A6942F480725A61BFF34F8F44
:10143000BFF36F8F31F8021C5A6922F480725A612F
:10144000BFF34F8FBFF36F8F4DF60273994201D0F8
:10145000002070470120704700ED00E038B50546D8
:1014600000230B701A4BD86A10F002002DD10C46E5
:10147000DB6A002B2ADB164BD86A10F0804025D09F
:101480002846FFF7CDFF08B128681FE0104B9B6A84
:1014900013F0FF0F0DD10E4B986A10F47F400ED160
:1014A0000B4B9B6AB3F5803F10D32846FFF780FFB4
:1014B0000CE0224601212846FFF7E2FE06E0224624
:1014C00001212846FFF72EFF00E0002038BD00BFB5
:1014D00000ED00E030B58BB01F4B5D68C5F308052B
:1014E000002383F31188BFF36F8F0DF1260305F0FE
:1014F0001DFB04460DF12702294605F0F4FA9DF87C
:1015000027300BB10BB030BD05460DF1040C20683F
:101510006168A268E368ACE80F0020696169A269AC
:10152000E369ACE80F009DF826304BB1089BC3F38C
:1015300008025AB96FEA53236FEA4323089305E080
:10154000089B23F4FF7323F00103089301A92846A5
:1015500005F09EFAD6E700BF00ED00E0044B5A69A3
:1015600042F010025A615A6942F480625A6170472F
:1015700000ED00E0EFF30880EFF3098101B572465A
:10158000FFF7A8FF01BD00BF002206E003F00F0334
:101590000949194420230B760132402A0ADC53B250
:1015A000002BF3DB03F1604303F56143202183F853
:1015B0000013F1E7704700BFFCEC00E00020154984
:1015C0000870002080F31488BFF36F8F002080F331
:1015D0000A8880F30B88FFF7E1FB00200E490860C2
:1015E000BFF34F8F0D4880F3088800F041F82020AA
:1015F00080F311880A484FF40061401880F309888D
:10160000EFF314800221084380F31488BFF36F8F37
:10161000FFF752FD50CE002094ED00E098DB002053
:1016200058CE0020BFF34F8F0549CA6802F4E0622C
:10163000044B1343CB60BFF34F8F00BFFDE700BFE8
:1016400000ED00E00400FA05084BD3F89000C0F369
:101650000720002306E0054AC2F898300021C2F8AE
:10166000A01001338342F6DB704700BF00ED00E0BD
:1016700010B572B6002484F31388FFF7E5FF234604
:1016800008E003F120010E4A4FF0FF3042F821003C
:101690000133DBB20F2BF4D9002308E003F1600122
:1016A000074A4FF0FF3042F821000133DBB20F2B25
:1016B000F4D962B6BFF34F8FBFF36F8F10BD00BF79
:1016C00000E100E008B50A4B9B68834202D003F0BA
:1016D000ADFE08BDEFF30583002BF8D0054B5A682B
:1016E00042F080525A605A6A22F400425A62EEE78F
:1016F000F4CD002000ED00E010B584B00A4C234684
:101700000A4A01210A4805F0AAFA0023019302932C
:101710000393084B0193E41A0294012101A805F0F8
:10172000A2FA04B010BD00BF0000042080C5002054
:101730004C880100E8C60020024B034AC3F8C020D1
:10174000704700BF00ED00E0AAFF4400034BC3F860
:101750009800C3F89C10C3F8A020704700ED00E08B
:101760000E4BC3F89800C3F89800D3F89C000A7A8F
:1017700060F304020A72D3F8A020C2F34202087A8E
:1017800062F347100872D3F89C2022F01F020A600F
:10179000D3F8A03023F01F03CB60704700ED00E0CA
:1017A0002DE9F04F87B08146009101931446002740
:1017B00034E0D84565D12946C0B205F020FA2CE0C6
:1017C000584AC2F89860D2F89C3003F01F0321F009
:1017D0001F010B43C2F89C302946E0B205F00FFA16
:1017E000044610F1160F00F09680013415E0013B1D
:1017F0004C49C1F89860D1F8A02002F01F0223F0F4
:101800001F031343C1F8A0302946E0B205F0F7F9F1
:10181000044610F1160F7ED001340137009B9F4221
:1018200079DA07EB47054FEA850A09EB85056E680B
:10183000002EF2D0019B23B1284605F0C3F9002801
:1018400065D0314659F80A0005F0F8F9064610F15E
:10185000160F5FD0A04262DA324BC3F89800D3F87B
:101860009C2022F01F02C3F89800D3F8A03043F068
:101870001F0859F80A306968194401F1FF3B9A4280
:1018800097D09A429CD0D845B1D0013B2549C1F8A8
:101890009860D1F8A02002F01F0223F01F03134329
:1018A000C1F8A0302946E0B205F0A9F9044610F1CC
:1018B000160F30D001301B4BC3F89860D3F89C1042
:1018C0009DF8102061F304028DF81020D3F8A030A9
:1018D000C3F34203D2B263F347128DF8102059F8D4
:1018E0000A306A681344029323F01F03A8EB0B0825
:1018F0004344013B23F01F03059302A9C0B205F046
:1019000073F9044610F1160F05D0013485E76FF026
:10191000150400E00446204607B0BDE8F08F6FF0E4
:101920001504F8E700ED00E010B5034C0123227820
:10193000FFF736FF207010BD40CE002070B5054681
:101940000E46002400E00134A6421EDD04EB4403F1
:101950009A0005EB830359680029F4D0A85805F0D4
:101960006DF904EB84030B4A42F8230010F1160FC3
:101970000CD0094B1B78984209DA04EB840302EB84
:1019800083010431FFF7ECFEDDE7002070BD6FF04E
:101990001500FBE7BCC8002040CE0020044B052208
:1019A000C3F89420BFF34F8FBFF36F8F704700BF12
:1019B00000ED00E0BFF35F8F024B0022C3F89420DC
:1019C000704700BF00ED00E038B50E4B1D68102DCC
:1019D00015D8FFF7EFFFFFF7AFFE002407E0094B34
:1019E000596801EB0411204605F0D8F80134A542EE
:1019F000F5D8054B1D70FFF7D1FF002038BD4FF023
:101A0000FF30FBE75C88010040CE0020014B1860EE
:101A1000704700BF88C500200246084B1968084B74
:101A2000C8180A44C3F1005303F580239A4202D236
:101A3000024B1A6070474FF0FF307047D0C800204B
:101A400098DD00200048704728C90020034BC01AC9
:101A50008010034B03FB00F0704700BFE8C8002074
:101A6000B76DDBB638B505460C46FFF7EFFF01460C
:101A70004022034805F0A8F901462846A04738BD92
:101A8000D484010030B583B005460C46FFF7DEFF75
:101A90000146402300932346054A064805F0AEF967
:101AA000011E01DB03B030BD2846A047FAE700BFA6
:101AB000456E0100D484010008B510B101280DD095
:101AC00008BD0021084805F00AF9836813F0070FE4
:101AD000F6D10021044805F065F9F1E7012102483B
:101AE00005F060F9ECE700BFD484010010B582B0C6
:101AF0004FF02003EFF3118483F31288BFF36F8F4D
:101B0000144A136843F00201116013F0010F09D168
:101B1000002384F31188BFF36F8FABB905F09AF9F6
:101B200002B010BD0DF1070201210B4805F0B4F819
:101B30009DF80730012B01D00023EAE7FFF782FF71
:101B400005F01DF90123E4E70021044805F02AF916
:101B5000E6E700BF38C9002000500040D4840100EF
:101B600010B54FF02003EFF3118483F31288BFF315
:101B70006F8F084A136823F00201116013F0010F00
:101B800004D084F31188BFF36F8F10BD05F06CF99A
:101B9000F7E700BF38C9002070B582B005460128BC
:101BA00006D12E4BD3F81C3403F00303022B34D0A0
:101BB00006F0B2F8044610B9294B1B7873B94FF000
:101BC0002003EFF3118683F31288BFF36F8F012494
:101BD00084B9224B0222C3F808230BE00026F7E762
:101BE000ECB13046FFF728FA1C4BD3F81835DBB2BE
:101BF000012B18D00DF107020021184805F04CF810
:101C00000028EDD09DF80730022B01D0012DE7D13F
:101C1000F4B186F31188BFF36F8F02B070BD01205D
:101C200005F02CF9E0E70D4BD3F80431002BE1D09F
:101C30000A4B0022C3F80421D3F804210222C3F87E
:101C40001825084A2021C2F8801101229A60D1E7A4
:101C5000024B0222C3F80423DFE700BF005000401C
:101C600050CE002000E100E000B585B0CDF800D0F6
:101C7000CDF804D000230293012303936B46074A57
:101C800005F0D8F8002805DB4FF4804200236846B1
:101C900003F018F805B05DF804FB00BFA96E010061
:101CA00070B5064600220121052004F000FF11480E
:101CB00000F0D6FF104B984219D100F0E3FF00244A
:101CC000012C12D82146304605F009F80546214678
:101CD000304605F00FF8094904F030FC002805DB18
:101CE0000123AB601C44E4B2EAE7002070BD6FF052
:101CF0000400FBE7B91A01000000AD0B9488010055
:101D000010B504460E4B0121D3E8EF2FC3E8E01FC6
:101D10000028F9D11AB1631E012B0DD910BD094855
:101D200004F0E8FF084900234B608B60CB6001237F
:101D30008B6004F020FCEEE72046FFF72DFFEDE777
:101D4000E4C80020D4840100D4C8002010B50446A3
:101D50000A2806D0E1B2064883685B6898472046A7
:101D600010BD034883685B680D219847F2E700BF08
:101D70001C85010010B5044C2046FFF747FE2046A5
:101D8000FEF788FB10BD00BF4D1D010008B50548DA
:101D900005F0FEFE18B1FFF7EDFF002008BD6FF063
:101DA0001200FBE71C85010008B9024870470020BB
:101DB000704700BFEC840100F0B585B00E461946AF
:101DC00043681B7B06F01F0545EA4315B2F5001F6B
:101DD00022D007461446002301930293104605F0D3
:101DE0004FF98DF804007B689968F14011F0010FFC
:101DF00002D1B4F1A07F14D0002301AA19462846CD
:101E000001F02CFA184B98422AD10121284601F002
:101E10008DFB002005B0F0BD284601F0C3FB00207B
:101E2000F8E705F01F038033104A52F8233013F00F
:101E3000010FE1D10DF10F01284601F01BFB0C4B06
:101E4000984203D00DF10F030293D5E70DF10F0077
:101E500001F064FB044B9842F4D06FF00B00D9E71B
:101E60006FF01500D6E700BF0000AD0B00258440E1
:101E70000400AD0B2DE9F04186B00E461446D0F8B3
:101E8000048098F80C3001F01F0545EA43150DF168
:101E90001701284601F0EEFA074614F4403F39D006
:101EA0000021039104910B4603AA284601F0D6F9BC
:101EB000324B98425FD19F423CD014F4003F47D050
:101EC0000DF10301204605F068F8074648BB9DF870
:101ED00003308DF8043014F4803F0CBF012300233D
:101EE0008DF80530204605F09BF88DF8060014F4B7
:101EF000002F24D0D8F804200123B340936000229F
:101F000001A9284601F040FA1C4B984209D06FF015
:101F1000150706E0284601F06FFB184B9F4204D0DE
:101F20000027384606B0BDE8F0819DF8170001F0A3
:101F3000EDFAF5E79DF8170001F0E8FABDE714F4B3
:101F4000802FDCD0D8F804200123B340D360D6E73B
:101F5000204605F065F88DF8080000231A4602A90E
:101F6000284601F07BF9054B984201D10027D8E7BC
:101F70006FF01507D5E76FF01507D2E70000AD0B3E
:101F800008B501F0B9FA08B1002008BD01F08AFADD
:101F9000084B98420AD10021074801F065FA002257
:101FA0000521312004F083FD0020EEE76FF00400EE
:101FB000EBE700BF0000AD0BB97001004FF0000C63
:101FC0008C4580F0FE802DE9F04135E04FF0FF3385
:101FD0003CE0C2F80C354FF0010E744675467F2B7D
:101FE00023D0B5F1FF3F0BD0002D40F0DA8003F095
:101FF0001F08012505FA08F5DFF8CC81C8F80C5058
:10200000C55915F4005F02D04FF0010E0024C5F34E
:10201000C11503F01F0344EA4E0444EA850444EA70
:1020200006248033684D45F823400CF1010C5FFA1B
:102030008CFC8C4580F0BF804FEA8C0750F82C4018
:10204000C4F3432604F07F037F2BBFD0240C192C4C
:1020500000F2B38001A555F824F000BFD31F0100A2
:10206000C5200100D5200100E3200100F32001007C
:10207000012101000F210100BB210100BB21010052
:10208000BB210100BB2101001F2101003121010002
:10209000BB210100BB210100BB210100BB210100CC
:1020A000BB210100BB210100BB210100BB210100BC
:1020B000BB210100432101005521010067210100DE
:1020C00079210100C2F814354FF0000E74464FF02C
:1020D000FF3584E7C2F808354FF0010E74467546A7
:1020E0007DE7C2F810354FF0000E74464FF0FF3513
:1020F00075E7C2F808354FF0000E012475466EE70B
:10210000C2F80C354FF0010E7446002567E7C2F89F
:1021100010354FF0000E74464FF0FF355FE7C2F800
:10212000083596B34FF0000E74464FF0FF3556E772
:10213000C2F80C357EB34FF0000E74464FF0FF35F9
:102140004DE7C2F86035C559C5F380354FF0010E33
:10215000744644E7C2F86435C559C5F380354FF07D
:10216000010E74463BE7C2F86835C559C5F38035A2
:102170004FF0010E744632E7C2F86C35C559C5F30D
:1021800080354FF0010E744629E7B64634464FF0CD
:10219000FF35062623E7B64634464FF0FF350626C0
:1021A0001DE703F01F08012505FA08F5DFF8188080
:1021B000C8F8085024E7002001E06FF08500BDE872
:1021C000F0810020704700BF0025844043681A68F2
:1021D000B1F5164F6FD03AD8B1F5165F6ED00AD967
:1021E000B1F5E14F75D024D947F6122399422BD18E
:1021F0004FF4000313E0B1F5966F61D007D9B1F544
:10220000166F63D0B1F5965F10D13C4B07E0B1F586
:10221000967F58D0B1F5167F05D14FF41C33C2F824
:102220002435002070476FF0150070476FF01500DF
:102230007047B1F5615F4ED0B1F5964F01D1304B8B
:10224000EDE76FF0150070476FF015007047B1F5BE
:10225000613F42D009D9B1F5612F46D01FD9294B32
:10226000994248D14FF08053D9E7B1F5963F37D026
:1022700005D9B1F5E13F0FD14FF0EB73CFE74DF644
:10228000C02399422ED0B1F5614F02D14FF46B03B8
:10229000C5E76FF0150070476FF0150070471A4BD7
:1022A000994225D0B1F5E12F02D14FF0E863B6E7AE
:1022B0006FF0150070474FF41D03B0E7134BAEE706
:1022C0004FF49E23ABE74FF4A033A8E74FF41D2350
:1022D000A5E70F4BA3E70F4BA1E74FF06C739EE709
:1022E0000D4B9CE74FF4650399E74FF0706396E759
:1022F0004FF0806393E76FF01500704700B0130054
:1023000000A04E0040420F0090D003000050270074
:1023100000C0750000F03A0000903A01F8B505469B
:102320000E46076905F0F8FC10B9124B1B7883B90B
:102330004FF02003EFF3118483F31288BFF36F8F04
:10234000284604F086FF40B984F31188BFF36F8FED
:10235000EEE7284604F0E2FF04463B691E700122C6
:102360003969284604F08FFF84F31188BFF36F8F1B
:10237000F8BD00BF50CE002038B505460C4601F12F
:10238000180000F015FD0A4B98420ED1237E43F051
:102390000043C5F8A031C5F88C30227E012393405C
:1023A000044AC2F80435002038BD6FF00400FBE792
:1023B0000000AD0B0070014021F07F4100F5A870D6
:1023C000014B43F820107047005001404FF4803318
:1023D0008340024AC2F84433704700BF00500140B6
:1023E0004FF480338340024AC2F84833704700BF3D
:1023F00000500140014BD3F80405704700500140E4
:102400002DE9F04106468846FFF7EAFF304605F021
:102410002EF84546032701E03D190137294630468D
:10242000FFF7CAFF3046FFF7D1FFFFF7E3FF04468F
:10243000C11C284605F00AF80B4B984211D93046CA
:1024400005F008F80028E7D0FFF7D4FF044641461E
:1024500004F0FCFFB0F5000F03D9304605F007F893
:10246000DAE7BDE8F08100BFFDFF7F00034B044ABF
:10247000C3F80823C3F84823704700BF0050014049
:1024800003000F0010B5012383406FEA030C0C4AD0
:10249000D2E8EF1F01EA0C0EC2E8E4EF002CF7D1FE
:1024A0004FF4803282400748C0F80823BFF35F8FA3
:1024B000BFF36F8F0B4214BF0120002010BD00BF7F
:1024C0004CC90020005001404FF480338340124A31
:1024D000D2F80423134201D10020704710B50446FE
:1024E00001238340DB430D49D1E8EF2F02EA0300CB
:1024F000C1E8EC0FBCF1000FF6D122FA04F313F09F
:10250000010F03D1204604F0A5FF18B1204604F0C6
:10251000AEFF012010BD00BF0050014048C900209F
:1025200001B97047012383400D4AD2E8EFCF4CEA4E
:10253000030CC2E8E1CF0029F7D14FF48033834088
:10254000084AC2F80433084BD3E8AF3FC34013F046
:10255000010FE6D0054B4FF40012C3F80021E0E76D
:102560004CC900200050014048C9002000E100E0B3
:1025700038B514461046194604F085FF02460D4949
:102580000B68E01A1B184C6844F100040B604C60A7
:10259000A2F50013B3F5400F09D2074B1B68190AC7
:1025A0001B06D41841F10005044BC3E9004503F0B4
:1025B00031F838BDF8C6002050C9002000C70020FF
:1025C00038B50D4B1C68250A2406BFF35F8FFFF753
:1025D00011FF0346001945F10001B3F5801F0AD22F
:1025E000064BD3E90023904271EB030303D210F1B1
:1025F000807041F1000138BD50C9002000C70020A3
:10260000F8B5064614461D461046194604F03BFF31
:102610000746FFF7D5FFA04271EB050315D2201A3C
:1026200065EB0101154B984271F1000123D2144B67
:1026300003EB0613D3E90223AB4208BFA2420ED03C
:1026400039463046FFF7DCFE09E00123B3400D4A6E
:10265000D2E8EF0F1843C2E8E10F0029F8D1084B88
:10266000320103EB0616C6E9024506999950079B0D
:1026700073600020F8BD6FF01500FBE701008000DB
:10268000E8C6002048C9002030B583B0FFF7EEFE51
:1026900000231D4AC2F80835002B24DD1A4C022500
:1026A000C4F80453194B4FF40012C3F880210022E0
:1026B0000121152004F0FBF9152004F0F3F90123A2
:1026C000A3602360124A136000240194114B00930D
:1026D000114A0023204604F0E7FE2846FFF710FBCE
:1026E000204603B030BD0D4A02EB03124FF0FF301D
:1026F0004FF0FF31C2E902014FF480329A400249A3
:10270000C1F804230133C7E70050014000E100E0B5
:102710004CC9002071250100FFFF7F00E8C60020A2
:102720002DE9F04782B00446FFF7CEFE10B902B0A3
:10273000BDE8F087FFF744FF82460D4604F0A6FE91
:102740000646154B03EB0413D3E90289C24575EB2A
:1027500009050BD20025304604F0A1FE002DE6D07D
:10276000009742464B462046A847E0E70A4A230125
:1027700002EB0411D5584F680020D0504FF0FF32C3
:102780004FF0FF33C1E902232046FFF729FE204620
:1027900004F06DFEDFE700BFE8C6002010B50E4B69
:1027A000D3F8043313F0020F0DD00B4BD3F80431E0
:1027B0004BB1094B0022C3F80421D3F80431074A76
:1027C0001368013313600024002C00DD10BD204687
:1027D000FFF7A6FF0134F7E70050014050C9002081
:1027E00010B582B0B0F1FF3F06D0012809DD154BCE
:1027F000984224DC044605E0134B00221A70134C67
:1028000003E00124104B01221A70FFF7D9FE104B90
:102810001A685B68801AB0F5000F00D300240444E6
:10282000B4F5000F00D3094C00201219019009499A
:10283000009143F1000304F037FE02B010BD034CD9
:10284000E0E700BFFEFF7F0043CE0020FFFF7F00D8
:10285000F8C600207125010008B5FFF7B1FE024B54
:102860001B68C01A08BD00BFF8C6002010B404469B
:102870004FF0000C1048034600E008339BB10E4AAD
:10288000934210D3503293420DD21A68A24211D013
:1028900042B10A4A12685968521A9445EDDA9446D0
:1028A0001846EAE718460460044B1B68013B436086
:1028B00010BC70471846FBE7D0C90020C4C90020EF
:1028C000014B1B6843607047C4C9002008B54268CB
:1028D000044B1B689A4201D1012008BDFFF7F0FFAD
:1028E0000020FAE7C4C9002038B504464FF02003A1
:1028F000EFF3118583F31288BFF36F8F02F090FD21
:10290000FFF7B4FFFFF7E2FF38B100232360074B66
:102910005B683BB11C60054B5C6085F31188BFF3BD
:102920006F8F38BD014B5C601C60F6E7C8C90020A2
:1029300010B501464FF02003EFF3118483F31288A2
:10294000BFF36F8F064804F0DBFD02F069FDFFF76F
:102950008DFFFFF7B5FF84F31188BFF36F8F10BDB4
:10296000C8C90020054B002018605860044BD3E80C
:10297000EF2FC3E8E10F0029F9D17047C8C9002043
:10298000C4C9002010B503682BB10A4CA34202D37E
:102990007034A3420AD3084B93F800C00CF1010E27
:1029A00083F800E0034B03EB0C130360006805F0B1
:1029B000E4F910BD54C9002044CE002038B50546C6
:1029C0000D4BD3E8EF1F0131C3E8E21F002AF8D115
:1029D0000A4B1C6806E0201D02F050F923462468CB
:1029E00004B133B13CB16369AB42F4D0002DF5D1F1
:1029F000F1E71C46F6E738BDC4C90020C8C900206D
:102A000008B5014600220023014805F051F908BD30
:102A100020CA002008B50146014805F054F908BD58
:102A200020CA002008B5014600220023014805F015
:102A30003FF908BD34CA002008B50146014805F039
:102A400042F908BD34CA002000B1704710B5054CEA
:102A50000549204601F03AFA0449204601F036FAC9
:102A600010BD00BFD4890100B4890100D8890100DC
:102A70002DE9F041A2B00446884615461E46114B8A
:102A80001F783FB14FF0FF324FF0FF330E4802F096
:102A900033F880B9684604F072F8289B324629461C
:102AA0004046A0470446684604F06AF82FB920461D
:102AB00022B0BDE8F0811F24F9E7034802F0A0F836
:102AC000F5E700BF50CE0020D0C60020F0B593B08F
:102AD00005460C4606AF302632460021384605F042
:102AE0003EFB049705960295039414B9002013B099
:102AF000F0BD0123019302AA009204AA002102481A
:102B000000F004F8F3E700BF0001004010B582B008
:102B1000059C01F5004CBCF5803F14D2FF2B15D865
:102B2000FF2C16D81B021FFA83FC4CEA0141E4B2C9
:102B3000049B0093134641EA040201460648FFF74E
:102B400097FF02B010BD6FF08000FAE76FF08000D1
:102B5000F7E76FF08000F4E711FC000010B504689F
:102B6000B4FA84F3C3F11F035FFA83FC002B12DB7A
:102B7000012202FA03F324EA0303D0E8EF2FA24272
:102B800004D1C0E8EE3FBEF1000FF6D1E7D181F8E5
:102B900000C0024810BD0248FCE700BF0000AD0BBA
:102BA0000200AD0B0368CB4013F0010F11D100B54B
:102BB000026801238B401343D0E8EFCF944504D142
:102BC000C0E8EE3FBEF1000FF6D1F1D102485DF84A
:102BD00004FB0248704700BF0000AD0B0400AD0BC2
:102BE00070B582B0064618B1012815D002B070BD8C
:102BF0001A4B0222C3F808230022C3F80421D3F899
:102C000004210122DA6001238DF807309E420ED0A4
:102C1000002542F2107412E0104B0122C3F8082381
:102C20000021C3F80011D3F800115A60EBE70DF151
:102C30000705EEE7012004F062FD013CD6D02A46EC
:102C40003146064804F05FFD0028CFD0002DF1D0BA
:102C50009DF80730012BEDD0C8E700BF00500040C1
:102C6000054B1B792BB9044B186001221A710348DC
:102C700070470348704700BF48CA00200000AD0BF2
:102C80000C00AD0B08B504F063FD04F05FFD024BD2
:102C9000C3F8180508BD00BF0050004010B101285E
:102CA00041D0704700B583B0244AD2F8183403F0FD
:102CB00003038DF80730D2F8183413F4803F1BD18A
:102CC0001E4BD3F8143413F0010F1AD104F03EFD5B
:102CD0008DF807009DF80720184BC3F8182500222F
:102CE000C3F80421D3F804210222C3F804230122EB
:102CF0009A6003B05DF804FB0DF1070004F032FDAB
:102D0000E8E70E4BD3F81C3403F003038DF80730CB
:102D10000DF1070004F026FD0028DBD0074B02224E
:102D2000C3F80423E5E7054B0022C3F80021D3F8DC
:102D300000210122C3F804231A60704700500040AC
:102D400008B5194BD3F800315BB1174B0020C3F81D
:102D50000001D3F800210122C3F80823134B1B689C
:102D60009847114BD3F80431ABB10F4B0022C3F895
:102D70000421D3F80421D3F8182402F00302D3F875
:102D80001834012A08D0084B0222C3F80823074B45
:102D90001B680120984708BD034B0222C3F8182581
:102DA00001229A60F7E700BF0050004048CA0020A7
:102DB00008B501460148FFF7D1FE08BDA8C50020AF
:102DC000F0B41C46049E059D00F01F0000F1800732
:102DD000264B53F827700B4679B301217AB34FF095
:102DE000020C41EA0C016CB34FF00C0C41EA0C01EF
:102DF0005EB34FF4E06C41EA0C014DB34FF4403C3C
:102E000041EA0C0127EA01012BB31B782AB312789F
:102E1000520013431CB32278920013430EB332784E
:102E200012021343FDB12A78120413430B4380307E
:102E30000E4A42F82030F0BC70470021CEE74FF038
:102E4000000CCEE74FF0000CD0E74FF0000CD2E7BB
:102E50004FF0000CD4E70023D8E70022D9E7002286
:102E6000DBE70022DDE70022DFE700BF002584402A
:102E70000830034B33F8100000F00100704700BF2A
:102E8000ACC500200830034B33F81000C0F34010ED
:102E9000704700BFACC500200830044B33F8100069
:102EA00010F01C0018BF0120704700BFACC5002007
:102EB0000830034B33F81000C0F34000704700BFE8
:102EC000ACC500200830024B33F81000400B7047AF
:102ED000ACC50020002204E04FF0FF3383420FD046
:102EE00001321F2A0AD802F10803064931F81330CB
:102EF00013F4807FF0D0C3F34323EFE70020704743
:102F000001207047ACC50020002313B14FF0FF3003
:102F10007047074A52F83320824201D00133F4E768
:102F2000034A02EBC30252688A42F7D1184670473F
:102F3000ACC5002000F108020C4B33F81230C3F38B
:102F40008203042B0BD0052B0BD000F01F00084B85
:102F50001B69C34013F0010F05D003207047032005
:102F60007047022070470220704700BFACC50020A8
:102F7000002584400830064B33F8100010F4807FA1
:102F800004D0C0F3432003EBC0007047002070471B
:102F9000ACC5002070B504460D46FFF7EBFF20B12D
:102FA0000668426829462046B047044B9B6823B117
:102FB000024AD26829462046984770BDACC5002019
:102FC00070B504460D461646084604F034FCA8B910
:102FD000022E33D0022004F01F031E49803351F823
:102FE000232022F4403242EA004241F82320032DFC
:102FF00028D0022E24D0032E29D070BD2946204689
:10300000FFF7C8FF04F01F0404F18002114B53F8CE
:103010002230C3F301439E42EFD10E4A803452F86E
:10302000243023F4403342F8243052F8243023F47F
:10303000403343EA064342F82430DEE70320CAE780
:10304000012DD8D129462046FFF7A4FFD5E7022D50
:10305000D3D1F7E7002584408446002305E0094AE0
:10306000116A4CF8041B11620133002BF7D00023C6
:103070000BB10020704750F823200AB90133F7E75D
:10308000012070470025844000F108020E4B33F800
:10309000123013F4807F16D010B5C3F343241046CA
:1030A00023F4F853084A22F810302046FFF712FFA5
:1030B00000B110BD0448002340F83430214654309C
:1030C000FFF770FDF5E77047ACC5002010B504466A
:1030D000FFF7D8FE50B12046FFF7F4FE084B00F58D
:1030E000A270002243F8202043F820202046FFF75A
:1030F000CBFF0834034B002223F8142010BD00BF7F
:1031000000100340ACC5002070B582B005460E46E5
:103110001446FFF7B9FF26B321463046FFF7F4FE09
:10312000031E13DB104941F8336001EBC302546006
:1031300005F1080031F810205B029BB2134343F401
:10314000807321F81030094802B070BD0DF10701FD
:103150000748FFF703FD054B9842F5D19DF807306E
:10316000E0E70248F0E700BFACC500200000AD0B6F
:1031700000C60020F0B583B0002301A805E0234A73
:10318000116A40F8041B11620133002BF7D00024B0
:1031900094B31F4B0022C3F87C21D3F87C3101A8E3
:1031A000FFF75AFF0028F2D103B0F0BD90FAA0F06B
:1031B000B0FA80F000EB441000F10802154B33F830
:1031C0001210C60800F0070301AFBA5D012505FA29
:1031D00003F3DB435BB21340BB5500F01F070B4EFC
:1031E00007F1800356F82320C2F30142C1F38201A4
:1031F000FFF7E6FEBD40356202AB03EB840353F8F4
:10320000040C0028D2D10134C2E700BF002584405D
:1032100000100340ACC5002038B5044618E094FA0D
:10322000A4F3B3FA83F301229A4024EA02040A4A7F
:1032300003F5A27352F82350C5F3042552F8230076
:10324000C0F3014004F0F5FA01462846FFF7A2FE5C
:10325000002CE4D138BD00BF001003402DE9F0413F
:1032600084B0044615461E4609B30F4604F0CBFA57
:1032700000283FD100238DF80E308DF80F300193D8
:1032800000933B460DF10F020DF10E012046FFF7B2
:1032900097FD394A04F1080132F8113023F0020396
:1032A0009BB222F8113043F0010322F81130BDB176
:1032B0002F78D5F804802046FFF7FAFDE0B1B8F189
:1032C000000F53D12C4A04F1080132F8113023F0D9
:1032D0001C039BB222F8113043EA870322F8113015
:1032E000002E47D0726831682046FFF70DFF04B00A
:1032F000BDE8F0812148FAE71F4A04F1080132F8DD
:10330000113023F02003DB04DB0C22F81130B8F17C
:10331000000FD7D0032F2BD86B681D7847B9184BF7
:1033200005F5A275002243F8252043F82520C9E7BA
:10333000384604F07FFA0346114805F5A27150F8AB
:10334000212022F0030240F821202246294604F0E1
:1033500022FA094A04F1080132F811306D03ADB2C6
:103360002B4343F0200322F81130ABE70348BEE7BC
:103370000248BCE70348BAE7ACC500200400AD0B27
:10338000001003400000AD0B70B584B00446154634
:1033900029B30E4604F046FA20B12046FFF772FD2D
:1033A00000283CD12046FFF777FD10B17378012B40
:1033B00035D001238DF80F30002301930096B31C04
:1033C000721C0DF10F012046FFF7FAFC224A04F1AE
:1033D000080132F8113043F0030322F81130002DB8
:1033E00036D0204604F01EFA002833D12E781B4B2D
:1033F00006F5A272002143F8221043F82210164A63
:1034000004F1080132F8113023F02003DB04DB0C57
:1034100022F811306B7823B9114804B070BD1148FF
:10342000FBE7AA7800922246314600F1804000F581
:10343000443004F0C9F9084A083432F814307603ED
:10344000B6B2334343F0200322F814300448E4E7D3
:103450000348E2E70348E0E7ACC500200010034062
:103460000000AD0B0400AD0B014B9860D9607047B4
:10347000ACC5002038B504460D46FFF703FD40B14A
:1034800004F10800044B33F810305B0B2B70034839
:1034900038BD0348FCE700BFACC500200000AD0B01
:1034A0000400AD0B0F4B93F858300BB10E4870472A
:1034B00010B50E4C40220021204604F050FE312071
:1034C00003F0F0FA0A4B0022C3F87C21D3F87C21E8
:1034D0004FF00042C3F80423012384F848306364AA
:1034E000044810BDACC500200500AD0BBCC50020D4
:1034F000001003400000AD0B034B93F85800003858
:1035000018BF0120704700BFACC5002008B50146B8
:103510000148FFF747FB08BDFCC5002008B5014680
:103520000148FFF71BFB08BDFCC5002038B5044669
:103530000D46FFF7A7FC18B3204604F073F9F8B165
:103540002046FFF7BFFC830003F580739BB203F1B5
:10355000804303F5443300221A601B6802F1804265
:1035600002F5443200F5A27152F8213043F0010314
:1035700042F821309DB101238340C2F804330EE0AC
:103580002046FFF7D7FC04F01F04054A803452F8A8
:10359000243023F4403343EA004342F8243038BD5A
:1035A0000025844010B50446FFF76CFCA0B120460E
:1035B00004F038F980B12046FFF784FC01228240F4
:1035C0000B4BC3F8082300F5A27053F8202022F01B
:1035D000030243F8202009E004F01F04054A803468
:1035E00052F8243023F4403342F8243010BD00BF99
:1035F000001003400025844010B50446FFF738FC56
:1036000008B9084810BD2046FFF7CCFF2046FFF759
:103610005DFD04F01F048034034B022243F8242094
:103620000248EFE70400AD0B002584400000AD0B1D
:1036300038B501204FF4807300210C4603E04000B0
:1036400004339BB20131072914D803F1804202F5FB
:1036500044321268002AF2D00C4AD2F804231042F5
:10366000EDD003F1804202F5443200251560126866
:103670000443E4E7054BD3F87C311BB92046FFF740
:10368000CBFD38BDFFF776FDF8E700BF0010034023
:1036900038B5084B1B790BB1074838BD0D461446A9
:1036A0002A2003F0FFF9034B01221A711D609C6070
:1036B0000248F2E750CA00200C00AD0B0000AD0B31
:1036C00010B4002308E050F82340DAB202F5A272E9
:1036D0000D4941F822400133072BF4D900230AE0B9
:1036E00003F1080250F82240DAB202F5B27206493C
:1036F00041F822400133072BF2D9026C024BC3F888
:10370000042310BC704700BF00A00240002307E064
:10371000DAB202F5A2720E49002041F8220001330C
:10372000072BF5D9002307E0DAB202F5B272084997
:10373000002041F822000133072BF5D9044B4FF04C
:10374000FF32C3F80823034B00221A71704700BFF1
:1037500000A0024050CA002001238340014AC2F861
:103760000433704700A0024001238340014AC2F89D
:103770000833704700A0024010B50D4BD3F80C433E
:1037800002E00C4A916898478CB194FAA4F0B0FA20
:1037900080F00123834024EA03048200064B134493
:1037A00000221A60034B1B68002BEAD1ECE710BD26
:1037B00000A0024050CA002000A1024070B503687A
:1037C0000446033BDBB2042B03D8094A52F82350CA
:1037D0002DB9A06808B100F019F8002070BD04F000
:1037E00084F821682B46BDE87040090C184700BFDB
:1037F000248A0100014B1B68184700BF08C600203F
:10380000014BDB68184700BF08C60020014B5B690D
:10381000184700BF08C60020014B9B68184700BF2F
:1038200008C60020014B1B68D86870475CCA00209E
:10383000002330B510490A681468A3420BD1002355
:103840004A6811688B4215D002EBC304A468A042F9
:1038500008D00133F6E702EBC305AD68A84201D0FA
:103860000133EAE702EBC302536823F0FF0343F09E
:103870000303536030BD00BF7CCA0020002230B576
:103880000B4B19680C6894420FD001EBC2039D6882
:10389000A8420BD14FF003020433D3E8CF1F002915
:1038A00003D1C3E8C02F0028F7D130BD0132EAE7C9
:1038B00074CA00202DE9F041002506460F4628462F
:1038C000DFF864803368AB4201D8BDE8F08106EBD5
:1038D000C5046368DBB2012B17D16268B8F8003009
:1038E000B3EB124F11D1022FA06810D1FFF766FF82
:1038F00090B9636823F0FF0343F003036360012082
:10390000B8F800300133A8F800300135DAE7016873
:10391000090C03F095FFEBE70128F0D1636823F071
:10392000FF0343F00203E9E73CCE002038B5074D22
:1039300001212868FFF7BEFF022104466868FFF7EF
:10394000B9FF0028F4D1002CF2D138BD7CCA002088
:1039500070B5072868D8DFE800F00B674F674B6742
:10396000400400F027FE0320BDE87040FFF726B8B2
:1039700003202E4BD3F81446D3F818662C4B1D7831
:10398000187000F0EDFD2B4BEDB2186803F082FECD
:10399000012D1CD1284B9C4210D009D8023B9C42DF
:1039A0000FD001339C420FD0244B1C600020DBE77A
:1039B000234B9C42F8D16FF00C04F5E76FF00B0439
:1039C000F2E76FF01504EFE76FF08504ECE731469E
:1039D000C4F30B0000F0B8FDE8E70222144B00200E
:1039E0001A7000F0BDFD134B186803F053FEDDE7BD
:1039F000FFF79CFF0220B7E70D4B1A78012AD0B2DF
:103A00000ED1104A1168104A8C68546049681160E0
:103A100000221A7000F0A4FD064B186803F03AFE6D
:103A2000FFF784FF01209FE770BD00BF00A00240A8
:103A300046CE002064CA00202200010078CA00207F
:103A40003230010060CA00207CCA002070B5164BDD
:103A500042681B6822F0FF0242F00202C31A426071
:103A60001248134A0168C3F38913D2E8DF4F651C7B
:103A7000C2E8D65F002EF8D101EBC3014A6892B2CA
:103A800042EA04424A600268032002EBC302536820
:103A900023F0FF0343F00103536003F06EFD0122A6
:103AA000044BDA6070BD00BF6CCA002074CA0020ED
:103AB0003ECE002000A002400A23F7B54FF47A75ED
:103AC0000C4E0D4F01933168386803F0E9FE04464F
:103AD00040B903F0DBFD40B9012001A903F051FD1D
:103AE0006E30F0D1204603B0F0BD0198684303F07A
:103AF00044FDE8E768CA002070CA0020054B1B7827
:103B00002BB9054B1968054B186803F0C9BE002096
:103B1000704700BF45CE00206CCA002074CA002048
:103B20002DE9F04F95B038220021064603A804F095
:103B300016FB0223049308230693202308930423EF
:103B40000D93102340250F9380230122CDE91153BB
:103B5000D523002155480B921393FEF713FF05461A
:103B6000002840F09F80024651493079FFF790FDD0
:103B700003A8FFF7A5FD34686268B2F59D6F40F0B9
:103B800089806169E3680B44E16903F59D630B4437
:103B9000B3F5003F7ED82068294604F0E0FA336888
:103BA0001C68D3F81C9004F53A72019204F1600786
:103BB000404A04F1A40804F1200BB9F1000F5CD1D4
:103BC000C2F800B000254FF0010A2570657084F836
:103BD00002A0E570336840461B69636033685B6927
:103BE000C4F814B0A360344BC4F81890C3F8008034
:103BF000324BE7601F600823C4F8108084F8A430BB
:103C000088F8015088F8025088F8035084F8603032
:103C10007D70BD70FD7003F02BFE384603F028FE6A
:103C2000274B04F53A721A60264B04F1E8021A6039
:103C30003168254B1960254B2549C3F81046C3F858
:103C40001456244B244C1D80244B25601D80244B8E
:103C500083F800A0234B02951D611B690293029B10
:103C6000124B186803F01AFDC8B92468A4B91E4B9A
:103C70001C70204615B0BDE8F08F9B6904F1400927
:103C8000636433684846DB69C2F800B0236400F01F
:103C900075FC97E76FF01504FFF738FDE9E76FF063
:103CA0007304F9E76FF02D04E3E700BF64CA002056
:103CB0005139010060CA002074CA002070CA002077
:103CC0006CCA002068CA00205CCA002000A0024024
:103CD000F04902003ECE002078CA00203CCE0020F1
:103CE00046CE00200056004045CE002070B5164B51
:103CF00042681B6822F0FF0242F00102C31A4260D0
:103D00001248134A0168C3F38913D2E8DF4F651CD8
:103D1000C2E8D65F002EF8D101EBC3014A6892B227
:103D200042EA04424A600268032002EBC30253687D
:103D300023F0FF0343F00103536003F01EFC012254
:103D4000044B5A6070BD00BF68CA002070CA0020D2
:103D50003ECE002000A0024010B5FFF7ADFE0124CA
:103D600000220321047081704270C270FFF7BEFF11
:103D7000054B1C7003F08FFDBDE81040034B47F26C
:103D80003051186803F08ABC45CE002064CA002078
:103D900010B50A4B04461B78032B0ED0FFF78CFEA0
:103DA00058B10121002201700221846042708170AB
:103DB000C270BDE81040FFF799BF10BD46CE00208D
:103DC0002DE9F34105460020174688461E4603F0BC
:103DD0008EFD024640B915B1284603F0B2FD6FF0E2
:103DE0000B0002B0BDE8F0816FF0580300240373AC
:103DF000042305600E4D037244738473C4734472CC
:103E00008472C472C0F80480394603202C7003F019
:103E10008AFD4FF0FF3301932B78B34201D100208C
:103E2000DFE7022001A903F0ACFB0028F4D0D8E7BB
:103E300047CE0020F8B5054600240F4F57F8046B15
:103E40002846314604F0B2F928B90134042CF5D1E2
:103E50004FF480300DE06CB1A31E012BF8D8304632
:103E6000FCF7D8FA0A220021284401F097FD40EA25
:103E70000440F8BD2046FCE7388A01002DE9F743ED
:103E8000002581460F461048294690461E4601935C
:103E900001F08EFD041E11DB0134204603F04FFDBE
:103EA000C9F8000068B1334642462146019601F048
:103EB0007FFD28463C6003B0BDE8F0836FF015003D
:103EC000F9E76FF00B00F6E7008801000FB47FB54B
:103ED000089C00F04BFB002839D0002C3AD0224639
:103EE00009AB03A902A80193FFF7C8FF044660B914
:103EF0001A4E4FF0FF31306803F0D0FB03460298B2
:103F00004BB103F01EFD6FF00A04204604B0BDE87B
:103F1000704004B07047022301220399FFF750FF5D
:103F2000044618B1306803F0B5FBEEE70C4D2B6882
:103F30001868FFF77FFF0446306803F0ABFB2B687F
:103F4000186803F0FAFC286803F0F4FCDDE74FF092
:103F5000FF34DAE76FF00D04D7E700BF90CA002006
:103F60008CCA002038B5C3680446A72B03D020684C
:103F700003F0E3FC08E0032908D0042921D002293A
:103F800002BF0122124B1A70002038BD114D2B6860
:103F90003BB100689847002320682B6003F0CDFCFC
:103FA00006E00B4B1A78022A05D100680028F5D1EB
:103FB0000020C0B2E9E7084A1060022201201A700E
:103FC000F7E7064B1B68002BD1D000689847CEE777
:103FD00047CE002084CA00208CCA002088CA002056
:103FE00030B5024600236425054905FB03F460183B
:103FF0000C59944203D00133082BF6D1002030BD78
:1040000094CA00202DE9F843021E104C18BF01226B
:1040100006460025A0464FF064090D4B0D4F1A705F
:104020002368BB420AD009FB05831A7F66F3861218
:104030001A77636B13B1204603F0C4FC0135082DD9
:1040400004F16404ECD1BDE8F88300BF94CA0020F9
:1040500048CE00201EF1AD1B0123034A1370034A12
:1040600010601846704700BF49CE0020B4CD002034
:10407000F8B548F20F03994206460D463BD022D8C8
:1040800048F20D0399422FD048F20E0399422FD0E7
:104090000069FFF7A5FF044608B3B5F5004F1ED928
:1040A000A5F50045013D0B2D19D8DFE815F090006E
:1040B000B300940094009400EE00EE009400990088
:1040C00018001800D20049F20403994216D0B1F545
:1040D000104F24D9C068FFF783FF044670BB3068D7
:1040E000B0B103F02AFC13E0FFF7B6FFC0B2F8BD91
:1040F00003F0F0FCFAE703F0EBFCF7E70369032BAE
:1041000006D8DFE803F0020A02070020FFF77AFF73
:104110000020ECE70122654B1A700120F6E70069E8
:10412000FFF75EFF04460028D9D048F281039D4284
:10413000D5D10146304600F0BBF84FE049F202030A
:104140009D4200F09E8035D803F08BFC0746E0B915
:104150001020FEF755FC0546B8B13946102203F091
:10416000FEFF33686B6073682B81718A002900F051
:104170009780328A06F1140003F0EBFBE860002818
:1041800040F08E802846FEF745FC306803F0D5FBF2
:10419000204603F039FC48B1204603F062FC28B900
:1041A0000C23A361237F63F07E032377204603F073
:1041B00030FC25E049F203039D4218D049F2820306
:1041C0009D428CD10146304600F086F806E07369C6
:1041D0000BB9B3690360304603F0C9FC054610E033
:1041E000037F23F0030343F003030377F3E7037F25
:1041F00043F0010303773069692812D16823A36172
:104200000025204603F037FC10B1204603F0DAFB0E
:10421000E8B26CE7037FF5686FF382030377706998
:1042200018B100F0EBF8A061EAE7204603F0F6FBD6
:1042300018B9237F43F008032377204603F0EEFBF1
:104240000028CBD0002DDCD00021204600F05EF805
:10425000D6E7437F013B43777369002BBBD13046E0
:1042600003F083FCB26943681A604268137F43F02D
:1042700008031377436822691A61436862695A61C7
:10428000A9E7437F01334377BAE7304603F06DFC7B
:10429000736913B9B36943609DE74FF0FF33FAE7E1
:1042A0002946204603F0A6FBAAE700BF4ACE00201D
:1042B00010B543690C465BB10B7F6FF304130B77AA
:1042C000406900F09BF8034BA061186803F0E2F925
:1042D000002010BDB8CD002010B50B7F0C466FF349
:1042E00004130B77006958B9DBB223F0280343F0BD
:1042F00028030B77044B186803F0CCF9002010BD9D
:1043000000F07CF8A061F5E7B8CD00202DE9F3417D
:10431000DFF8E4800546D8F80000019103F0BEF90B
:10432000074650B1019B002B63D11023AB614FF0C6
:10433000FF37384602B0BDE8F081286CA8B1FCF721
:1043400069F8461C304603F0D2FA044678B928468C
:1043500003F074FB08B16923AB61D8F8000003F0E7
:1043600099F9692003F08CF9E1E73E46EAE72B680A
:10437000042203610023027243728372C37295F8B0
:10438000472005F14401013292008260143003F0AD
:10439000D9FEE6B13246296C206803F0E8FE66607B
:1043A0002B7F042043F01003224647F281012B7734
:1043B00003F0B9FA284603F041FB0028B9D128469A
:1043C00003F038FB40B9A8690028B2D0CAE72670CC
:1043D0006670A670E670E2E7022001A903F0D1F84A
:1043E00010F10B0F05D00028E9D00028B8BF4042DB
:1043F000B8E77420B6E700BFB8CD002070289ABF98
:10440000024B53F820000248704700BF488A010061
:10441000ADBAADBAF8B5046806463CB101F47043D4
:10442000B3F5005F04D1414BC3E900140020F8BD8F
:104430003F4D2B68002B6FD044F2040291420BD801
:10444000B1F5804F68D9A1F58041023902292AD8F7
:10445000DFE801F04750590044F2011399422ED091
:1044600044F20123994257D1324E306808B103F02B
:1044700064FA0222304B346094F851401A702F4E87
:1044800014F008072B68327825D01AB90520984710
:1044900001233370E30702D502202B6898470120DF
:1044A0002B689847C2E7234E306808B103F045FAFD
:1044B0000022214B34601A7094F83D40DFE71D4E16
:1044C000306808B103F039FA01221B4B34601A70CE
:1044D00094F84140D3E7002ADCD006209847377093
:1044E000D8E7174E306808B103F027FA03202B688D
:1044F0003460D6E7134E306808B103F01EFA04208A
:104500002B683460CDE72278032A05D8DFE802F073
:1045100002080A0C07209847306803F00EFA85E776
:104520000820F8E70920F6E70A20F4E7CCCD0020C0
:10453000BCCD0020C8CD00204BCE00204CCE0020AA
:10454000C4CD0020C0CD002007B5044BCDE900014B
:104550001B686846984703B05DF804FBD4CD002083
:10456000014B1870704700BF4DCE0020024B1878E9
:10457000431E5842584170474DCE00200021074B42
:1045800001221970064B1970064B1960064B196011
:10459000064B18600648FEF7F5B900BF4ECE002066
:1045A0004FCE0020DCCD0020E0CD0020F0CD00205B
:1045B000D8CD002070B42D4B1B68196958691A7C3E
:1045C00000221A745C7C5A749C7C9A74DC7CDA74C9
:1045D0001C7D1A755C7D5A759C7D03299A75DC7D5E
:1045E000DA7529D0042933D001292FD18568204ECE
:1045F000954210D101211A7A00221972597A5A7201
:10460000997A9A72DA7A6FF05F02DA72194B70BC9B
:10461000186803F03FB8911C00EB81014C682178C9
:10462000622907D0633918BF0121490046F82140AB
:104630000132DDE70121F9E7187A1972597A5A72C5
:10464000997A9A72DA7A6FF05F02DA7270BC704708
:10465000187A1972597A5A72997A9A72DA7A6FF0CC
:104660005F02DA720122044B1A70EFE7F0CD0020EE
:10467000E4CD0020D8CD00204FCE0020034B00E039
:104680001833034A9342FBD3704700BFD484010020
:1046900034850100014B986894307047F4CD0020B8
:1046A00070B50646124B53F8204009E0434217E02C
:1046B000EA681370EA68537843F0010353700834D2
:1046C000731C0B4A52F82330A34210D965685DB1C0
:1046D00023682846984703460028EBD00028E5DBEE
:1046E000FF2BE5DDFF23E3E723689847E7E770BD8D
:1046F000208C010010B586B0B823104C03FB004499
:1047000000EB800C0E4B03EB8C030E4A059201224A
:1047100004920F22039200220292019200930A4B0C
:104720004FF4A072094901EB8C11204600F018F9F2
:10473000637B23F00403637306B010BD08C7002039
:10474000F4CD0020108C0100BD4A010058D6002095
:1047500008B50A4B01221A700320FFF7A1FF00F0F1
:10476000E3FF0420FFF79CFF00F05EF9FBF75AFE21
:10477000034A137B23F00103137308BD50CE0020BE
:10478000C0C7002008B50146014A0248FCF734FDC5
:1047900051470100C0C7002008B50348034A121A58
:1047A000002103F01FFA08BDE8C6002054CE002007
:1047B00010B50446FFF79EFFB8230A4903FB041116
:1047C000094A04EB840302EB8303D9601C74074B92
:1047D00003EBC42303F5006304EB840402EB8402BF
:1047E000536010BD08C70020F4CD002058CE002033
:1047F00070B586B000F050FD104D114B9D61114B0E
:1048000005930123049300240394029401940094DB
:104810000D4B4FF480620D49284600F0A1F8064682
:104820006B7B23F004036B73284603F018FB2046D0
:10483000FFF7BEFF304606B070BD00BFC0C7002006
:10484000F4CD0020188C01005147010098D70020BA
:1048500000B5AFB00020FFF723FF1E4B03F5006249
:1048600082F3088883F30A881B4CE02384F8223003
:104870000025E57725766576A57684F82050636A6D
:1048800043F4E023636284F82350FCF767FEFCF7EF
:10489000BFFB4FF0FF33A362E362FDF795F8FCF72F
:1048A0002BFF01248DF80D408DF80C40269527959F
:1048B000684600F033FF094BC3F808D0FFF7DEFE6F
:1048C0002046FFF7EDFE0220FFF7EAFEFFF790FF1C
:1048D000FFF758FF58CE002000ED00E0F4CD002097
:1048E00010B5064C05E0A2686168204603F082F925
:1048F0001434034B9C42F6D3002010BDA8C6002000
:10490000BCC600204FF02003EFF3118183F312881F
:10491000BFF36F8F0A4B5B6A834204D11A6F084B57
:104920005A6207E0134613B11A6F8242FAD10BB1F3
:10493000026F1A6781F31188BFF36F8F704700BF52
:10494000F4CD002008B553EA020102D103F0EAF9E0
:1049500008BD0249183000F0DDFDF9E7EB7E0100EB
:104960002DE9F04F85B004460F4615461E46DDF88A
:1049700038A0DDF83C90DDF84080DDF84CB000F167
:1049800058038365C365129B0422119903F0CEF985
:104990002A463946204603F0B3F90546CDF808808B
:1049A000CDF80490CDF800A03346024639462046A3
:1049B000FCF7FCFB002363652666C4F864A0C4F81A
:1049C0006890C4F86C804FF02003EFF3118283F3FA
:1049D0001288BFF36F8F134B596A21675C6282F3B1
:1049E0001188BFF36F8FBBF1000F13D01F22594600
:1049F00004F1740003F0BBFB002384F89330094BEF
:104A00009B685BB1D3F8A430C4F8A430284605B045
:104A1000BDE8F08F002384F87430F0E7C4F8A430C8
:104A2000F4E700BFF4CD002030B587B0214C14E08E
:104A3000A36A0593236A0493E3690393A36902932A
:104A40006369019323690093E368A2686168206841
:104A5000FFF786FF23685C652C34174B9C42E7D335
:104A600000F0DCF9134C00E02C34134B9C421CD2B8
:104A7000606AB0F1FF3FF7D0256820EAE070C11707
:104A8000C90341EA5041C00340F2E733C0184FF474
:104A90007A724FF0000341F10001FBF753FB02462D
:104AA0000B462846FFF74EFFDEE700F0A3FB07B0FA
:104AB00030BD00BF3C8701003C87010008B501E024
:104AC000FCF7ACFA4FF02002EFF3118382F3128867
:104AD000BFF36F8F03F0E3FA054B5861054B1B786A
:104AE000002BEDD0FCF7BEF90028EBD1E8E700BFC2
:104AF000F4CD002050CE00202DE9F04182B00446D4
:104B00001E464FF02003EFF3118583F31288BFF3A5
:104B10006F8F2B46C16899B9002951D1364A9268E6
:104B200092F90E2022610131E160334A9268A2605D
:104B300083F31188BFF36F8F002002B0BDE8F081CE
:104B4000174680682C4A92689042E5D056EA0701E1
:104B500038D090F90E80414692F90E0003F0F7F834
:104B6000804536DC4FF00008009701962246294622
:104B7000224800F08BFA0028DFD04FF02003EFF33B
:104B8000118583F31288BFF36F8F2E46A36843B35A
:104B900023689C4223D013B3216993F90E0003F0DC
:104BA000D6F80146204603F0DDF8E8B9B8F1000F69
:104BB0001AD186F31188BFF36F8F6FF00A00BCE73C
:104BC0002269AFE785F31188BFF36F8F6FF00F0095
:104BD000B3E70146204603F0C5F88046C4E72169E3
:104BE000E0E7B8F1000FE4D02946044800F000F9EE
:104BF0006FF00A00A1E700BFF4CD00201CCE00201A
:104C000083688BB370B504461A4A926893422ED1DA
:104C1000C368012B03D9013BC360002070BD4FF076
:104C20002003EFF3118583F31288BFF36F8F0169BF
:104C300003F098F8204603F0AAF9A06068B190F953
:104C40000E3023610024C0F8AC4003F008F9294677
:104C5000094800F0CDF82046E0E70020E06085F349
:104C60001188BFF36F8FD9E76FF0150070474FF0D1
:104C7000FF30D3E7F4CD00201CCE002038B5044629
:104C80004FF02003EFF3118583F31288BFF36F8F8A
:104C900003F07DF948B10022C0F8AC2003F0DFF842
:104CA0002946074800F0A4F838BDA368E26893429B
:104CB00003D001221344A360F2E70022FAE700BF09
:104CC0001CCE002010B582B04FF02004EFF311810C
:104CD00084F31288BFF36F8F846844B1013C846011
:104CE00081F31188BFF36F8F002002B010BD53EA2B
:104CF000020406D0009201930246054800F0C6F96E
:104D0000F3E781F31188BFF36F8F6FF00F00ECE7CB
:104D10001CCE0020C3897F2B11D80E4B1B687BB1A2
:104D200090F90E200C4B1B689A420CDB437B13F06E
:104D30001F0F0AD1094B984209D0012300E000233C
:104D400003F0010070470023FAE70023F8E700238F
:104D5000F6E700BF28CE002024CE002008C70020A0
:104D6000044BC01AC010044B03FB00F0034B01229C
:104D70001A54704778C80020ABAAAAAA20CE0020F7
:104D8000B3F1FF3F08BFB2F1FF3F00D1704708B554
:104D90000249183000F0BEFB08BD00BFEB7E0100E9
:104DA00070B505460D4B1E7C06EB46030C4C04EB20
:104DB000C304204603F055F90A4B00229A552846B1
:104DC000FFF7A8FF00B970BD074B1A68013AD31767
:104DD0000649204600F09EFBF5E700BFF4CD002019
:104DE00078C8002020CE002028CE0020614D010090
:104DF00008B50B4659B9EFF3058242B9064A9069E6
:104E00009268904203D00846FCF772F903E083F3FE
:104E10001188BFF36F8F08BDF4CD002000234FF041
:104E20002002EFF3118182F31288BFF36F8F09E044
:104E3000064B9A68D37B013BD37381F31188BFF390
:104E40006F8F0123002BF3D0704700BFF4CD0020FB
:104E500038B50446104802F0FBFF054670B184B92E
:104E60000E4B9B685A7B12F01F0F0AD1AA6942B9F8
:104E7000DA897F2A05D9094A93610BE0074BDD687F
:104E8000EDE7064B9B68AB4202D02846FFF788FF50
:104E9000024B9D6138BD00BF10CE0020F4CD002034
:104EA00038B50546427B90F90D30002B0ADB6B7B51
:104EB00063F07F036B731B4B53F81C4F9C4210D164
:104EC00000240EE002F07F0242730146164802F011
:104ED0008BFFECE763686B602C601D60656017E01A
:104EE00000246CB12146284602F05AFF0028F1DC6C
:104EF000002CF6D00B4B1B6A9C42F1D02468F0E7E3
:104F0000084B1A6A03F11C0129606A6015601D6272
:104F1000044B9868A84214BF00200120FFF798FFB7
:104F200038BD00BFF4CD002010CE002038B54FF0C2
:104F30002002EFF3118382F31288BFF36F8F1D46B7
:104F4000144B9C68144B1B68A34217D0124B0022D1
:104F50001A60104B1B7C114AD35C53B12046FFF7FB
:104F6000D9FE30B1637B13F01F0F0FD02046FFF73F
:104F700017FF85F31188BFF36F8F38BD2046FFF709
:104F80000FFF85F31188BFF36F8FF6E72046FFF719
:104F900087FFEBE7F4CD00201CCE002020CE0020C0
:104FA000427B90F90D30002B33DB70B5044612F0D4
:104FB0001F0F01D1866906B170BD62F07F02427396
:104FC000144B53F81C5F9D4208D1354606E06B68D0
:104FD000636025601C606C6017E035466DB1294642
:104FE000204602F0DDFE0028F1DC002DF6D0094B52
:104FF0001B6A9D42F1D02D68F0E7064B1A6A03F157
:105000001C012160626014601C620020FFF720FF19
:10501000D2E77047F4CD002010B54FF02003EFF336
:10502000118483F31288BFF36F8F437B13F0040F57
:1050300004D184F31188BFF36F8F10BD23F00403F4
:105040004373FFF7ADFF21460148FFF7D1FEF4E7B8
:105050002CCE002010B50446427B90F90D30002B79
:1050600008DB084B9868A04214BF00200120FFF71E
:10507000EFFE10BD02F07F0242730146024802F0CB
:10508000B3FEEEE7F4CD002010CE002010B50C46A4
:1050900011460A4882680A4B1A604FF02002EFF36B
:1050A000118382F31288BFF36F8FDDE902238068DA
:1050B00002F061FF2046FCF71BF810BDF4CD002084
:1050C0001CCE00202DE9F84305460F4600234FF083
:1050D0002002EFF3118682F31288BFF36F8F184618
:1050E00029E063686B602C601D60656017E04446D2
:1050F0006CB12146284602F053FE0028F1DC002C5A
:10510000F6D01D4B1B6A9C42F1D02468F0E71A4B85
:105110001A6A03F11C0129606A6015601D62012092
:10512000FFF796FE012001E0AF73002086F311889F
:10513000BFF36F8F0123E3B96B7B13F01F0FF3D124
:10514000D5F81880B8F1000FEED103F07F036B7330
:10515000DFF828902946484602F046FEAF736B7B85
:1051600063F07F036B73D9F800404C45C0D14446CF
:10517000BEE7BDE8F88300BFF4CD002010CE0020CC
:1051800038B50446183002F06CFF00234FF02002BF
:10519000EFF3118582F31288BFF36F8F10E0637B0A
:1051A00043F010036373114B9868A04214BF0020B2
:1051B0000120FFF74DFE85F31188BFF36F8F0123A8
:1051C00063B9627B94F90D30002BE8DA02F07F02BC
:1051D00062732146064802F007FEE0E7034B9B6836
:1051E000A34200D038BD02F0F3FDFBE7F4CD002070
:1051F00010CE002010B500234FF02002EFF31184F1
:1052000082F31288BFF36F8F0CE0094B9A68D37B4F
:105210000133D3730020FFF71BFE84F31188BFF323
:105220006F8F0123002BF0D002F0D2FD10BD00BF24
:10523000F4CD0020437B13F0080F2AD110B50446AB
:1052400043F00802427323F0200242F00802427346
:1052500012F0800F13D1A36813B1204602F0CCFDE9
:1052600004F1180002F0FDFE04F1580002F043FEC4
:105270000120FFF7EDFD2046FFF744FB10BD03F0D2
:105280005F0343F0080343730146024802F0ACFD9C
:10529000E1E7704710CE002008B5024802F0A9FEF1
:1052A00008BD00BF0CCE0020F8B54FF02003EFF38F
:1052B000118683F31288BFF36F8F1D4CA1684B7B5F
:1052C00003F07F034B7304F11C07384602F08CFD9A
:1052D000A5686B7B63F07F036B73E469BC4208D104
:1052E000002406E063686B602C601D60656017E059
:1052F00000246CB12146284602F052FD0028F1DC62
:10530000002CF6D00A4B1B6A9C42F1D02468F0E7CF
:10531000074B1A6A03F11C0129606A6015601D625F
:105320000120FFF795FD3046FBF7E2FEF8BD00BF18
:10533000F4CD00202DE9F04150EA010338D00446B5
:105340000E466FF001031B1A4FF0FF3262EB0102B1
:10535000012B72F100022FDB6FF001052D1A4FF0C7
:105360002003EFF3118883F31288BFF36F8F144F7C
:10537000B868144B1860FFF76DFEB86822463346D4
:105380001149183000F0C6F8BA68537B43F0100397
:1053900053734046FBF7ACFE02F098FE281A63EB0D
:1053A0000303012873F1000300DA0020BDE8F08157
:1053B000FFF77AFF0020F9E702F088FE0519CEE733
:1053C000F4CD00201CCE0020EB7E010008B5B1F129
:1053D000FF3F08BFB0F1FF3F18D0FFF7ABFFC21788
:1053E000510141EAD06143011B1A61EB02018900BE
:1053F00041EA93719B001B1842EB0102D20042EA82
:105400005372C3F3103343EA424008BD034B98681C
:10541000FFF7B6FE4FF0FF30F7E700BFF4CD0020F6
:10542000014B9868704700BFF4CD002070B54FF075
:105430002003EFF3118583F31288BFF36F8F2E469D
:10544000037B13F0010F09D10446437B13F0080FCF
:105450000FD085F31188BFF36F8F09E085F31188B2
:10546000BFF36F8F404080F311884FF0040002DFDC
:1054700070BDFFF7DFFE084B9B68A34204D086F3A4
:105480001188BFF36F8FF3E7EFF30583002BF6D19D
:105490002846FBF72DFEF2E7F4CD002008B50648BC
:1054A000064A121A064902F0A1FB064A06490748B5
:1054B00002F09CFB08BD00BF80C50020E4C60020B0
:1054C000488E010000000000308E010080C50020E1
:1054D000034B1868984200D070470020FCE700BFDB
:1054E00034C6002030B1044A5268904201D00068AE
:1054F00070470020704700BF34C6002008B5044B39
:105500001B680BB1002008BDFDF7A6F9FBE700BF43
:105510002CCE0020B3F1FF3F08BFB2F1FF3F74D0A3
:105520002DE9F047044692461D46816000234FF066
:105530002002EFF3118782F31288BFF36F8F26E00A
:105540001AF1010845F10009FFF7D8FF18EB000335
:1055500049EBE070236160613BE0521A66EB0303A4
:10556000026143614368636020601C60446005E041
:10557000264B5A682360626014605C60FFF7A8FFE6
:1055800084423AD087F31188BFF36F8F0123002B39
:1055900039D153466FF00101B1EB0A014FF0FF30F2
:1055A00060EB0502002ACBDB194A116852685B18D0
:1055B00042EB05026FF00101C91A60EB02030846D5
:1055C0001A46012973F1000301DA0120002220614B
:1055D0006261FFF77DFF0028CAD002694669216930
:1055E0006369914273EB060EB7DB891A63EB06031E
:1055F00021616361FFF776FFEDE702F015FD002101
:10560000FDF7EEF8BEE7BDE8F087704734C600202E
:1056100090C8002070B54FF02003EFF3118683F39C
:105620001288BFF36F8F2B4B1860FFF751FF0446B2
:1056300024E0294A136851685B1941EBE571136056
:10564000516000220023C4E90423204602F0D5FC67
:1056500086F31188BFF36F8FA368204698474FF0F9
:105660002003EFF3118683F31288BFF36F8F194A7B
:1056700013685B1B1360FFF72BFF04463CB12569E1
:105680006169144B1A68D317AA428B41D1DA44B12D
:10569000236962690F4909685B1A62EBE172236151
:1056A00062610D4A0B4D2868136851681B1841EB65
:1056B000E0711360516000242C6002F0B5FC2146BB
:1056C000FDF78EF886F31188BFF36F8FFFF72EFC7E
:1056D00070BD00BF2CCE002090C8002010B5002265
:1056E0004FF02003EFF3118483F31288BFF36F8F21
:1056F000134611460CE0FFF701FF074A1368516893
:10570000C31841EBE07184F31188BFF36F8F01225E
:10571000002AF0D0184610BD90C80020014BC0F8F8
:10572000A4307047A8C6002008B5024800F008FC65
:1057300008BD00BF3C8C010038B50546002941D0AA
:1057400051F8043C0C1F002BB8BFE41800F03EF9E0
:105750001D4A136833B9636014602846BDE83840B9
:1057600000F03AB9A34208D9206821188B4201BF42
:1057700019685B6809182160EDE71A465B680BB190
:10578000A342FAD911685018A0420BD120680144F5
:10579000501811608342E0D118685B680844536078
:1057A0001060DAE702D90C232B60D6E720682118B5
:1057B0008B4202BF19685B680918636008BF2160EB
:1057C0005460CAE738BD00BF34CE0020F8B5CD1C08
:1057D000064625F0030508350C2D38BF0C25002D95
:1057E00001DBA94203D90C2333600020F8BD00F08F
:1057F000EDF821490A6814469CB9204F3B6823B94B
:105800002146304600F03CF838602946304600F02A
:1058100037F8431C23D10C233046336000F0DCF80A
:10582000E3E723685B1B17D40B2B03D923601C44CD
:10583000256004E06368A2420CBF0B6053603046F1
:1058400000F0CAF804F10B00231D20F00700C21A73
:105850001CBF1B1AA350C9E722466468CCE7C41CCE
:1058600024F00304A042E3D0211A304600F008F8E7
:105870000130DDD1CFE700BF34CE002030CE002094
:1058800038B50023054D044608462B60FCF7C4F8E4
:10589000431C02D12B6803B1236038BD38CE0020F1
:1058A000242B2DE9F0478646904601D8012B06D1DE
:1058B00001F0EEF9162303600020BDE8F0870D46E5
:1058C00035482A4615F8014B065D16F00806F8D152
:1058D0002D2C24D12C780126951C2BBB302C30D0BC
:1058E0000A2306F1004C00220CF1FF3C1046BCFBE1
:1058F000F3F903FB19CAA4F13007092F28D83C4655
:10590000A34234DD571C07D081452DD301D1A245D8
:105910002ADB00FB0340012215F8014BEBE72B2C9F
:1059200004BF2C78951CD8E7102BDAD1302CD8D1B5
:105930002A7802F0DF02582AD3D16C78102302357E
:10594000CFE72B7803F0DF03582BF6D00823C8E706
:10595000A4F14107192F01D8373CD1E7A4F1610721
:10596000192F04D8573CCBE74FF0FF32D4E7531C34
:1059700008D122236046CEF80030B8F1000F9CD049
:10598000691E06E006B14042B8F1000F95D0002A2A
:10599000F6D1C8F8001090E7F28C010013460A46D1
:1059A000014602480068FFF77BBF00BF3CC60020ED
:1059B00007B5009313460A4601460348006802F003
:1059C0000BFC03B05DF804FB3CC60020014801F06D
:1059D00053B900BFBCC60020014801F055B900BF53
:1059E000BCC600202DE9F04F98468B899DB0074634
:1059F0001B060D46144610D50B6973B94021FFF7FD
:105A0000E5FE2860286130B90C233B604FF0FF3081
:105A10001DB0BDE8F08F40236B610023CDF80C80F2
:105A20004FF00109DFF8A081099320238DF8293078
:105A300030238DF82A3023469A4613F8012B0AB1F9
:105A4000252AF9D1BAEB040B0BD05B462246294636
:105A5000384602F0ECFB013000F0A780099A5A4466
:105A600009929AF80030002B00F09F8000234FF03D
:105A7000FF320AF1010A049307938DF853301A9309
:105A8000CDE90523544605224F4814F8011B02F0C6
:105A90009BFC049AD8B9D00644BF20238DF853301C
:105AA000110744BF2B238DF853309AF800302A2B6E
:105AB00015D0079A544600204FF00A0C214611F8E1
:105AC000013B303B092B4BD9B0B1079214E0A0EB5E
:105AD0000803A24609FA03F313430493D2E7039B96
